{
	"contracts/TheSmartWallet.sol": {
		"SmartWalletContract": {
			"abi": [
				{
					"inputs": [],
					"stateMutability": "nonpayable",
					"type": "constructor"
				},
				{
					"inputs": [
						{
							"internalType": "address",
							"name": "",
							"type": "address"
						}
					],
					"name": "allowances",
					"outputs": [
						{
							"internalType": "uint256",
							"name": "",
							"type": "uint256"
						}
					],
					"stateMutability": "view",
					"type": "function"
				},
				{
					"inputs": [],
					"name": "confirmationsFromGaurdianForReset",
					"outputs": [
						{
							"internalType": "uint256",
							"name": "",
							"type": "uint256"
						}
					],
					"stateMutability": "view",
					"type": "function"
				},
				{
					"inputs": [
						{
							"internalType": "address",
							"name": "",
							"type": "address"
						}
					],
					"name": "gaurdian",
					"outputs": [
						{
							"internalType": "bool",
							"name": "",
							"type": "bool"
						}
					],
					"stateMutability": "view",
					"type": "function"
				},
				{
					"inputs": [
						{
							"internalType": "address",
							"name": "",
							"type": "address"
						}
					],
					"name": "isAllowedToSend",
					"outputs": [
						{
							"internalType": "bool",
							"name": "",
							"type": "bool"
						}
					],
					"stateMutability": "view",
					"type": "function"
				},
				{
					"inputs": [],
					"name": "owner",
					"outputs": [
						{
							"internalType": "address payable",
							"name": "",
							"type": "address"
						}
					],
					"stateMutability": "view",
					"type": "function"
				},
				{
					"inputs": [
						{
							"internalType": "address payable",
							"name": "_newOwner",
							"type": "address"
						}
					],
					"name": "proposeNewOwner",
					"outputs": [],
					"stateMutability": "nonpayable",
					"type": "function"
				},
				{
					"inputs": [
						{
							"internalType": "address",
							"name": "_for",
							"type": "address"
						},
						{
							"internalType": "uint256",
							"name": "_amount",
							"type": "uint256"
						}
					],
					"name": "setAllowances",
					"outputs": [],
					"stateMutability": "nonpayable",
					"type": "function"
				},
				{
					"inputs": [
						{
							"internalType": "address",
							"name": "_gaurdian",
							"type": "address"
						},
						{
							"internalType": "bool",
							"name": "_isGaurdian",
							"type": "bool"
						}
					],
					"name": "setGaurdian",
					"outputs": [],
					"stateMutability": "nonpayable",
					"type": "function"
				},
				{
					"inputs": [
						{
							"internalType": "address payable",
							"name": "_to",
							"type": "address"
						},
						{
							"internalType": "uint256",
							"name": "_amount",
							"type": "uint256"
						},
						{
							"internalType": "bytes",
							"name": "payload",
							"type": "bytes"
						}
					],
					"name": "transfer",
					"outputs": [
						{
							"internalType": "bytes",
							"name": "",
							"type": "bytes"
						}
					],
					"stateMutability": "nonpayable",
					"type": "function"
				},
				{
					"stateMutability": "payable",
					"type": "receive"
				}
			],
			"devdoc": {
				"kind": "dev",
				"methods": {},
				"version": 1
			},
			"evm": {
				"assembly": "    /* \"contracts/TheSmartWallet.sol\":227:2276  contract SmartWalletContract{... */\n  mstore(0x40, 0x80)\n    /* \"contracts/TheSmartWallet.sol\":654:713  constructor(){... */\n  callvalue\n  dup1\n  iszero\n  tag_1\n  jumpi\n  0x00\n  dup1\n  revert\ntag_1:\n  pop\n    /* \"contracts/TheSmartWallet.sol\":694:704  msg.sender */\n  caller\n    /* \"contracts/TheSmartWallet.sol\":678:683  owner */\n  0x00\n  dup1\n    /* \"contracts/TheSmartWallet.sol\":678:705  owner = payable(msg.sender) */\n  0x0100\n  exp\n  dup2\n  sload\n  dup2\n  0xffffffffffffffffffffffffffffffffffffffff\n  mul\n  not\n  and\n  swap1\n  dup4\n  0xffffffffffffffffffffffffffffffffffffffff\n  and\n  mul\n  or\n  swap1\n  sstore\n  pop\n    /* \"contracts/TheSmartWallet.sol\":227:2276  contract SmartWalletContract{... */\n  dataSize(sub_0)\n  dup1\n  dataOffset(sub_0)\n  0x00\n  codecopy\n  0x00\n  return\nstop\n\nsub_0: assembly {\n        /* \"contracts/TheSmartWallet.sol\":227:2276  contract SmartWalletContract{... */\n      mstore(0x40, 0x80)\n      jumpi(tag_1, lt(calldatasize, 0x04))\n      shr(0xe0, calldataload(0x00))\n      dup1\n      0xa364c09f\n      gt\n      tag_12\n      jumpi\n      dup1\n      0xa364c09f\n      eq\n      tag_7\n      jumpi\n      dup1\n      0xb1f8100d\n      eq\n      tag_8\n      jumpi\n      dup1\n      0xbe45fd62\n      eq\n      tag_9\n      jumpi\n      dup1\n      0xd004c57d\n      eq\n      tag_10\n      jumpi\n      dup1\n      0xdead82af\n      eq\n      tag_11\n      jumpi\n      jump(tag_2)\n    tag_12:\n      dup1\n      0x0bc605ad\n      eq\n      tag_3\n      jumpi\n      dup1\n      0x139c7b5d\n      eq\n      tag_4\n      jumpi\n      dup1\n      0x2b603c71\n      eq\n      tag_5\n      jumpi\n      dup1\n      0x8da5cb5b\n      eq\n      tag_6\n      jumpi\n      jump(tag_2)\n    tag_1:\n      jumpi(tag_2, calldatasize)\n      stop\n    tag_2:\n      0x00\n      dup1\n      revert\n        /* \"contracts/TheSmartWallet.sol\":505:552  mapping(address => bool) public isAllowedToSend */\n    tag_3:\n      callvalue\n      dup1\n      iszero\n      tag_15\n      jumpi\n      0x00\n      dup1\n      revert\n    tag_15:\n      pop\n      tag_16\n      0x04\n      dup1\n      calldatasize\n      sub\n      dup2\n      add\n      swap1\n      tag_17\n      swap2\n      swap1\n      tag_18\n      jump\t// in\n    tag_17:\n      tag_19\n      jump\t// in\n    tag_16:\n      mload(0x40)\n      tag_20\n      swap2\n      swap1\n      tag_21\n      jump\t// in\n    tag_20:\n      mload(0x40)\n      dup1\n      swap2\n      sub\n      swap1\n      return\n        /* \"contracts/TheSmartWallet.sol\":1220:1519  function setAllowances(address _for,uint _amount)public {... */\n    tag_4:\n      callvalue\n      dup1\n      iszero\n      tag_22\n      jumpi\n      0x00\n      dup1\n      revert\n    tag_22:\n      pop\n      tag_23\n      0x04\n      dup1\n      calldatasize\n      sub\n      dup2\n      add\n      swap1\n      tag_24\n      swap2\n      swap1\n      tag_25\n      jump\t// in\n    tag_24:\n      tag_26\n      jump\t// in\n    tag_23:\n      stop\n        /* \"contracts/TheSmartWallet.sol\":334:376  mapping(address => uint) public allowances */\n    tag_5:\n      callvalue\n      dup1\n      iszero\n      tag_27\n      jumpi\n      0x00\n      dup1\n      revert\n    tag_27:\n      pop\n      tag_28\n      0x04\n      dup1\n      calldatasize\n      sub\n      dup2\n      add\n      swap1\n      tag_29\n      swap2\n      swap1\n      tag_18\n      jump\t// in\n    tag_29:\n      tag_30\n      jump\t// in\n    tag_28:\n      mload(0x40)\n      tag_31\n      swap2\n      swap1\n      tag_32\n      jump\t// in\n    tag_31:\n      mload(0x40)\n      dup1\n      swap2\n      sub\n      swap1\n      return\n        /* \"contracts/TheSmartWallet.sol\":264:294  address  payable public  owner */\n    tag_6:\n      callvalue\n      dup1\n      iszero\n      tag_33\n      jumpi\n      0x00\n      dup1\n      revert\n    tag_33:\n      pop\n      tag_34\n      tag_35\n      jump\t// in\n    tag_34:\n      mload(0x40)\n      tag_36\n      swap2\n      swap1\n      tag_37\n      jump\t// in\n    tag_36:\n      mload(0x40)\n      dup1\n      swap2\n      sub\n      swap1\n      return\n        /* \"contracts/TheSmartWallet.sol\":2049:2234  function setGaurdian(address _gaurdian,bool _isGaurdian) public {... */\n    tag_7:\n      callvalue\n      dup1\n      iszero\n      tag_38\n      jumpi\n      0x00\n      dup1\n      revert\n    tag_38:\n      pop\n      tag_39\n      0x04\n      dup1\n      calldatasize\n      sub\n      dup2\n      add\n      swap1\n      tag_40\n      swap2\n      swap1\n      tag_41\n      jump\t// in\n    tag_40:\n      tag_42\n      jump\t// in\n    tag_39:\n      stop\n        /* \"contracts/TheSmartWallet.sol\":1527:2041  function proposeNewOwner(address payable _newOwner)public {... */\n    tag_8:\n      callvalue\n      dup1\n      iszero\n      tag_43\n      jumpi\n      0x00\n      dup1\n      revert\n    tag_43:\n      pop\n      tag_44\n      0x04\n      dup1\n      calldatasize\n      sub\n      dup2\n      add\n      swap1\n      tag_45\n      swap2\n      swap1\n      tag_46\n      jump\t// in\n    tag_45:\n      tag_47\n      jump\t// in\n    tag_44:\n      stop\n        /* \"contracts/TheSmartWallet.sol\":722:1212  function transfer(address payable  _to,uint _amount,bytes memory payload) public returns(bytes memory){... */\n    tag_9:\n      callvalue\n      dup1\n      iszero\n      tag_48\n      jumpi\n      0x00\n      dup1\n      revert\n    tag_48:\n      pop\n      tag_49\n      0x04\n      dup1\n      calldatasize\n      sub\n      dup2\n      add\n      swap1\n      tag_50\n      swap2\n      swap1\n      tag_51\n      jump\t// in\n    tag_50:\n      tag_52\n      jump\t// in\n    tag_49:\n      mload(0x40)\n      tag_53\n      swap2\n      swap1\n      tag_54\n      jump\t// in\n    tag_53:\n      mload(0x40)\n      dup1\n      swap2\n      sub\n      swap1\n      return\n        /* \"contracts/TheSmartWallet.sol\":589:645  uint public constant confirmationsFromGaurdianForReset=3 */\n    tag_10:\n      callvalue\n      dup1\n      iszero\n      tag_55\n      jumpi\n      0x00\n      dup1\n      revert\n    tag_55:\n      pop\n      tag_56\n      tag_57\n      jump\t// in\n    tag_56:\n      mload(0x40)\n      tag_58\n      swap2\n      swap1\n      tag_32\n      jump\t// in\n    tag_58:\n      mload(0x40)\n      dup1\n      swap2\n      sub\n      swap1\n      return\n        /* \"contracts/TheSmartWallet.sol\":458:498  mapping(address => bool) public gaurdian */\n    tag_11:\n      callvalue\n      dup1\n      iszero\n      tag_59\n      jumpi\n      0x00\n      dup1\n      revert\n    tag_59:\n      pop\n      tag_60\n      0x04\n      dup1\n      calldatasize\n      sub\n      dup2\n      add\n      swap1\n      tag_61\n      swap2\n      swap1\n      tag_18\n      jump\t// in\n    tag_61:\n      tag_62\n      jump\t// in\n    tag_60:\n      mload(0x40)\n      tag_63\n      swap2\n      swap1\n      tag_21\n      jump\t// in\n    tag_63:\n      mload(0x40)\n      dup1\n      swap2\n      sub\n      swap1\n      return\n        /* \"contracts/TheSmartWallet.sol\":505:552  mapping(address => bool) public isAllowedToSend */\n    tag_19:\n      mstore(0x20, 0x05)\n      dup1\n      0x00\n      mstore\n      keccak256(0x00, 0x40)\n      0x00\n      swap2\n      pop\n      sload\n      swap1\n      0x0100\n      exp\n      swap1\n      div\n      0xff\n      and\n      dup2\n      jump\t// out\n        /* \"contracts/TheSmartWallet.sol\":1220:1519  function setAllowances(address _for,uint _amount)public {... */\n    tag_26:\n        /* \"contracts/TheSmartWallet.sol\":1307:1312  owner */\n      0x00\n      dup1\n      sload\n      swap1\n      0x0100\n      exp\n      swap1\n      div\n      0xffffffffffffffffffffffffffffffffffffffff\n      and\n        /* \"contracts/TheSmartWallet.sol\":1293:1312  msg.sender == owner */\n      0xffffffffffffffffffffffffffffffffffffffff\n      and\n        /* \"contracts/TheSmartWallet.sol\":1293:1303  msg.sender */\n      caller\n        /* \"contracts/TheSmartWallet.sol\":1293:1312  msg.sender == owner */\n      0xffffffffffffffffffffffffffffffffffffffff\n      and\n      eq\n        /* \"contracts/TheSmartWallet.sol\":1285:1346  require(msg.sender == owner,\"you are not the owner aborting\") */\n      tag_65\n      jumpi\n      mload(0x40)\n      0x08c379a000000000000000000000000000000000000000000000000000000000\n      dup2\n      mstore\n      0x04\n      add\n      tag_66\n      swap1\n      tag_67\n      jump\t// in\n    tag_66:\n      mload(0x40)\n      dup1\n      swap2\n      sub\n      swap1\n      revert\n    tag_65:\n        /* \"contracts/TheSmartWallet.sol\":1372:1379  _amount */\n      dup1\n        /* \"contracts/TheSmartWallet.sol\":1355:1365  allowances */\n      0x02\n        /* \"contracts/TheSmartWallet.sol\":1355:1371  allowances[_for] */\n      0x00\n        /* \"contracts/TheSmartWallet.sol\":1366:1370  _for */\n      dup5\n        /* \"contracts/TheSmartWallet.sol\":1355:1371  allowances[_for] */\n      0xffffffffffffffffffffffffffffffffffffffff\n      and\n      0xffffffffffffffffffffffffffffffffffffffff\n      and\n      dup2\n      mstore\n      0x20\n      add\n      swap1\n      dup2\n      mstore\n      0x20\n      add\n      0x00\n      keccak256\n        /* \"contracts/TheSmartWallet.sol\":1355:1379  allowances[_for]=_amount */\n      dup2\n      swap1\n      sstore\n      pop\n        /* \"contracts/TheSmartWallet.sol\":1399:1400  0 */\n      0x00\n        /* \"contracts/TheSmartWallet.sol\":1391:1398  _amount */\n      dup2\n        /* \"contracts/TheSmartWallet.sol\":1391:1400  _amount>0 */\n      gt\n        /* \"contracts/TheSmartWallet.sol\":1388:1512  if(_amount>0){... */\n      iszero\n      tag_68\n      jumpi\n        /* \"contracts/TheSmartWallet.sol\":1436:1440  true */\n      0x01\n        /* \"contracts/TheSmartWallet.sol\":1414:1429  isAllowedToSend */\n      0x05\n        /* \"contracts/TheSmartWallet.sol\":1414:1435  isAllowedToSend[_for] */\n      0x00\n        /* \"contracts/TheSmartWallet.sol\":1430:1434  _for */\n      dup5\n        /* \"contracts/TheSmartWallet.sol\":1414:1435  isAllowedToSend[_for] */\n      0xffffffffffffffffffffffffffffffffffffffff\n      and\n      0xffffffffffffffffffffffffffffffffffffffff\n      and\n      dup2\n      mstore\n      0x20\n      add\n      swap1\n      dup2\n      mstore\n      0x20\n      add\n      0x00\n      keccak256\n      0x00\n        /* \"contracts/TheSmartWallet.sol\":1414:1440  isAllowedToSend[_for]=true */\n      0x0100\n      exp\n      dup2\n      sload\n      dup2\n      0xff\n      mul\n      not\n      and\n      swap1\n      dup4\n      iszero\n      iszero\n      mul\n      or\n      swap1\n      sstore\n      pop\n        /* \"contracts/TheSmartWallet.sol\":1388:1512  if(_amount>0){... */\n      jump(tag_69)\n    tag_68:\n        /* \"contracts/TheSmartWallet.sol\":1497:1502  false */\n      0x00\n        /* \"contracts/TheSmartWallet.sol\":1475:1490  isAllowedToSend */\n      0x05\n        /* \"contracts/TheSmartWallet.sol\":1475:1496  isAllowedToSend[_for] */\n      0x00\n        /* \"contracts/TheSmartWallet.sol\":1491:1495  _for */\n      dup5\n        /* \"contracts/TheSmartWallet.sol\":1475:1496  isAllowedToSend[_for] */\n      0xffffffffffffffffffffffffffffffffffffffff\n      and\n      0xffffffffffffffffffffffffffffffffffffffff\n      and\n      dup2\n      mstore\n      0x20\n      add\n      swap1\n      dup2\n      mstore\n      0x20\n      add\n      0x00\n      keccak256\n      0x00\n        /* \"contracts/TheSmartWallet.sol\":1475:1502  isAllowedToSend[_for]=false */\n      0x0100\n      exp\n      dup2\n      sload\n      dup2\n      0xff\n      mul\n      not\n      and\n      swap1\n      dup4\n      iszero\n      iszero\n      mul\n      or\n      swap1\n      sstore\n      pop\n        /* \"contracts/TheSmartWallet.sol\":1388:1512  if(_amount>0){... */\n    tag_69:\n        /* \"contracts/TheSmartWallet.sol\":1220:1519  function setAllowances(address _for,uint _amount)public {... */\n      pop\n      pop\n      jump\t// out\n        /* \"contracts/TheSmartWallet.sol\":334:376  mapping(address => uint) public allowances */\n    tag_30:\n      mstore(0x20, 0x02)\n      dup1\n      0x00\n      mstore\n      keccak256(0x00, 0x40)\n      0x00\n      swap2\n      pop\n      swap1\n      pop\n      sload\n      dup2\n      jump\t// out\n        /* \"contracts/TheSmartWallet.sol\":264:294  address  payable public  owner */\n    tag_35:\n      0x00\n      dup1\n      sload\n      swap1\n      0x0100\n      exp\n      swap1\n      div\n      0xffffffffffffffffffffffffffffffffffffffff\n      and\n      dup2\n      jump\t// out\n        /* \"contracts/TheSmartWallet.sol\":2049:2234  function setGaurdian(address _gaurdian,bool _isGaurdian) public {... */\n    tag_42:\n        /* \"contracts/TheSmartWallet.sol\":2144:2149  owner */\n      0x00\n      dup1\n      sload\n      swap1\n      0x0100\n      exp\n      swap1\n      div\n      0xffffffffffffffffffffffffffffffffffffffff\n      and\n        /* \"contracts/TheSmartWallet.sol\":2132:2149  msg.sender==owner */\n      0xffffffffffffffffffffffffffffffffffffffff\n      and\n        /* \"contracts/TheSmartWallet.sol\":2132:2142  msg.sender */\n      caller\n        /* \"contracts/TheSmartWallet.sol\":2132:2149  msg.sender==owner */\n      0xffffffffffffffffffffffffffffffffffffffff\n      and\n      eq\n        /* \"contracts/TheSmartWallet.sol\":2124:2184  require(msg.sender==owner,\"you are not the owner, aborting\") */\n      tag_71\n      jumpi\n      mload(0x40)\n      0x08c379a000000000000000000000000000000000000000000000000000000000\n      dup2\n      mstore\n      0x04\n      add\n      tag_72\n      swap1\n      tag_73\n      jump\t// in\n    tag_72:\n      mload(0x40)\n      dup1\n      swap2\n      sub\n      swap1\n      revert\n    tag_71:\n        /* \"contracts/TheSmartWallet.sol\":2215:2226  _isGaurdian */\n      dup1\n        /* \"contracts/TheSmartWallet.sol\":2195:2203  gaurdian */\n      0x04\n        /* \"contracts/TheSmartWallet.sol\":2195:2214  gaurdian[_gaurdian] */\n      0x00\n        /* \"contracts/TheSmartWallet.sol\":2204:2213  _gaurdian */\n      dup5\n        /* \"contracts/TheSmartWallet.sol\":2195:2214  gaurdian[_gaurdian] */\n      0xffffffffffffffffffffffffffffffffffffffff\n      and\n      0xffffffffffffffffffffffffffffffffffffffff\n      and\n      dup2\n      mstore\n      0x20\n      add\n      swap1\n      dup2\n      mstore\n      0x20\n      add\n      0x00\n      keccak256\n      0x00\n        /* \"contracts/TheSmartWallet.sol\":2195:2226  gaurdian[_gaurdian]=_isGaurdian */\n      0x0100\n      exp\n      dup2\n      sload\n      dup2\n      0xff\n      mul\n      not\n      and\n      swap1\n      dup4\n      iszero\n      iszero\n      mul\n      or\n      swap1\n      sstore\n      pop\n        /* \"contracts/TheSmartWallet.sol\":2049:2234  function setGaurdian(address _gaurdian,bool _isGaurdian) public {... */\n      pop\n      pop\n      jump\t// out\n        /* \"contracts/TheSmartWallet.sol\":1527:2041  function proposeNewOwner(address payable _newOwner)public {... */\n    tag_47:\n        /* \"contracts/TheSmartWallet.sol\":1604:1612  gaurdian */\n      0x04\n        /* \"contracts/TheSmartWallet.sol\":1604:1624  gaurdian[msg.sender] */\n      0x00\n        /* \"contracts/TheSmartWallet.sol\":1613:1623  msg.sender */\n      caller\n        /* \"contracts/TheSmartWallet.sol\":1604:1624  gaurdian[msg.sender] */\n      0xffffffffffffffffffffffffffffffffffffffff\n      and\n      0xffffffffffffffffffffffffffffffffffffffff\n      and\n      dup2\n      mstore\n      0x20\n      add\n      swap1\n      dup2\n      mstore\n      0x20\n      add\n      0x00\n      keccak256\n      0x00\n      swap1\n      sload\n      swap1\n      0x0100\n      exp\n      swap1\n      div\n      0xff\n      and\n        /* \"contracts/TheSmartWallet.sol\":1596:1651  require(gaurdian[msg.sender],\"You are not the gaudian\") */\n      tag_75\n      jumpi\n      mload(0x40)\n      0x08c379a000000000000000000000000000000000000000000000000000000000\n      dup2\n      mstore\n      0x04\n      add\n      tag_76\n      swap1\n      tag_77\n      jump\t// in\n    tag_76:\n      mload(0x40)\n      dup1\n      swap2\n      sub\n      swap1\n      revert\n    tag_75:\n        /* \"contracts/TheSmartWallet.sol\":1720:1725  false */\n      0x00\n        /* \"contracts/TheSmartWallet.sol\":1670:1725  nextOwnerGaudianVotedBool[_newOwner][msg.sender]==false */\n      iszero\n      iszero\n        /* \"contracts/TheSmartWallet.sol\":1670:1695  nextOwnerGaudianVotedBool */\n      0x03\n        /* \"contracts/TheSmartWallet.sol\":1670:1706  nextOwnerGaudianVotedBool[_newOwner] */\n      0x00\n        /* \"contracts/TheSmartWallet.sol\":1696:1705  _newOwner */\n      dup4\n        /* \"contracts/TheSmartWallet.sol\":1670:1706  nextOwnerGaudianVotedBool[_newOwner] */\n      0xffffffffffffffffffffffffffffffffffffffff\n      and\n      0xffffffffffffffffffffffffffffffffffffffff\n      and\n      dup2\n      mstore\n      0x20\n      add\n      swap1\n      dup2\n      mstore\n      0x20\n      add\n      0x00\n      keccak256\n        /* \"contracts/TheSmartWallet.sol\":1670:1718  nextOwnerGaudianVotedBool[_newOwner][msg.sender] */\n      0x00\n        /* \"contracts/TheSmartWallet.sol\":1707:1717  msg.sender */\n      caller\n        /* \"contracts/TheSmartWallet.sol\":1670:1718  nextOwnerGaudianVotedBool[_newOwner][msg.sender] */\n      0xffffffffffffffffffffffffffffffffffffffff\n      and\n      0xffffffffffffffffffffffffffffffffffffffff\n      and\n      dup2\n      mstore\n      0x20\n      add\n      swap1\n      dup2\n      mstore\n      0x20\n      add\n      0x00\n      keccak256\n      0x00\n      swap1\n      sload\n      swap1\n      0x0100\n      exp\n      swap1\n      div\n      0xff\n      and\n        /* \"contracts/TheSmartWallet.sol\":1670:1725  nextOwnerGaudianVotedBool[_newOwner][msg.sender]==false */\n      iszero\n      iszero\n      eq\n        /* \"contracts/TheSmartWallet.sol\":1662:1737  require(nextOwnerGaudianVotedBool[_newOwner][msg.sender]==false,\"Aborting\") */\n      tag_78\n      jumpi\n      mload(0x40)\n      0x08c379a000000000000000000000000000000000000000000000000000000000\n      dup2\n      mstore\n      0x04\n      add\n      tag_79\n      swap1\n      tag_80\n      jump\t// in\n    tag_79:\n      mload(0x40)\n      dup1\n      swap2\n      sub\n      swap1\n      revert\n    tag_78:\n        /* \"contracts/TheSmartWallet.sol\":1764:1773  nextOwner */\n      0x01\n      0x00\n      swap1\n      sload\n      swap1\n      0x0100\n      exp\n      swap1\n      div\n      0xffffffffffffffffffffffffffffffffffffffff\n      and\n        /* \"contracts/TheSmartWallet.sol\":1751:1773  _newOwner != nextOwner */\n      0xffffffffffffffffffffffffffffffffffffffff\n      and\n        /* \"contracts/TheSmartWallet.sol\":1751:1760  _newOwner */\n      dup2\n        /* \"contracts/TheSmartWallet.sol\":1751:1773  _newOwner != nextOwner */\n      0xffffffffffffffffffffffffffffffffffffffff\n      and\n      eq\n        /* \"contracts/TheSmartWallet.sol\":1748:1857  if(_newOwner != nextOwner){... */\n      tag_81\n      jumpi\n        /* \"contracts/TheSmartWallet.sol\":1801:1810  _newOwner */\n      dup1\n        /* \"contracts/TheSmartWallet.sol\":1789:1798  nextOwner */\n      0x01\n      0x00\n        /* \"contracts/TheSmartWallet.sol\":1789:1810  nextOwner = _newOwner */\n      0x0100\n      exp\n      dup2\n      sload\n      dup2\n      0xffffffffffffffffffffffffffffffffffffffff\n      mul\n      not\n      and\n      swap1\n      dup4\n      0xffffffffffffffffffffffffffffffffffffffff\n      and\n      mul\n      or\n      swap1\n      sstore\n      pop\n        /* \"contracts/TheSmartWallet.sol\":1844:1845  0 */\n      0x00\n        /* \"contracts/TheSmartWallet.sol\":1825:1843  gaurdianResetCount */\n      0x06\n        /* \"contracts/TheSmartWallet.sol\":1825:1845  gaurdianResetCount=0 */\n      dup2\n      swap1\n      sstore\n      pop\n        /* \"contracts/TheSmartWallet.sol\":1748:1857  if(_newOwner != nextOwner){... */\n    tag_81:\n        /* \"contracts/TheSmartWallet.sol\":1867:1885  gaurdianResetCount */\n      0x06\n      0x00\n        /* \"contracts/TheSmartWallet.sol\":1867:1887  gaurdianResetCount++ */\n      dup2\n      sload\n      dup1\n      swap3\n      swap2\n      swap1\n      tag_82\n      swap1\n      tag_83\n      jump\t// in\n    tag_82:\n      swap2\n      swap1\n      pop\n      sstore\n      pop\n        /* \"contracts/TheSmartWallet.sol\":644:645  3 */\n      0x03\n        /* \"contracts/TheSmartWallet.sol\":1901:1919  gaurdianResetCount */\n      sload(0x06)\n        /* \"contracts/TheSmartWallet.sol\":1901:1954  gaurdianResetCount>=confirmationsFromGaurdianForReset */\n      lt\n        /* \"contracts/TheSmartWallet.sol\":1898:2034  if(gaurdianResetCount>=confirmationsFromGaurdianForReset){... */\n      tag_84\n      jumpi\n        /* \"contracts/TheSmartWallet.sol\":1976:1985  nextOwner */\n      0x01\n      0x00\n      swap1\n      sload\n      swap1\n      0x0100\n      exp\n      swap1\n      div\n      0xffffffffffffffffffffffffffffffffffffffff\n      and\n        /* \"contracts/TheSmartWallet.sol\":1970:1975  owner */\n      0x00\n      dup1\n        /* \"contracts/TheSmartWallet.sol\":1970:1985  owner=nextOwner */\n      0x0100\n      exp\n      dup2\n      sload\n      dup2\n      0xffffffffffffffffffffffffffffffffffffffff\n      mul\n      not\n      and\n      swap1\n      dup4\n      0xffffffffffffffffffffffffffffffffffffffff\n      and\n      mul\n      or\n      swap1\n      sstore\n      pop\n        /* \"contracts/TheSmartWallet.sol\":2020:2021  0 */\n      0x00\n        /* \"contracts/TheSmartWallet.sol\":2000:2009  nextOwner */\n      0x01\n      0x00\n        /* \"contracts/TheSmartWallet.sol\":2000:2022  nextOwner = payable(0) */\n      0x0100\n      exp\n      dup2\n      sload\n      dup2\n      0xffffffffffffffffffffffffffffffffffffffff\n      mul\n      not\n      and\n      swap1\n      dup4\n      0xffffffffffffffffffffffffffffffffffffffff\n      and\n      mul\n      or\n      swap1\n      sstore\n      pop\n        /* \"contracts/TheSmartWallet.sol\":1898:2034  if(gaurdianResetCount>=confirmationsFromGaurdianForReset){... */\n    tag_84:\n        /* \"contracts/TheSmartWallet.sol\":1527:2041  function proposeNewOwner(address payable _newOwner)public {... */\n      pop\n      jump\t// out\n        /* \"contracts/TheSmartWallet.sol\":722:1212  function transfer(address payable  _to,uint _amount,bytes memory payload) public returns(bytes memory){... */\n    tag_52:\n        /* \"contracts/TheSmartWallet.sol\":811:823  bytes memory */\n      0x60\n        /* \"contracts/TheSmartWallet.sol\":850:855  owner */\n      0x00\n      dup1\n      sload\n      swap1\n      0x0100\n      exp\n      swap1\n      div\n      0xffffffffffffffffffffffffffffffffffffffff\n      and\n        /* \"contracts/TheSmartWallet.sol\":836:855  msg.sender != owner */\n      0xffffffffffffffffffffffffffffffffffffffff\n      and\n        /* \"contracts/TheSmartWallet.sol\":836:846  msg.sender */\n      caller\n        /* \"contracts/TheSmartWallet.sol\":836:855  msg.sender != owner */\n      0xffffffffffffffffffffffffffffffffffffffff\n      and\n      eq\n        /* \"contracts/TheSmartWallet.sol\":833:1074  if(msg.sender != owner){... */\n      tag_86\n      jumpi\n        /* \"contracts/TheSmartWallet.sol\":873:888  isAllowedToSend */\n      0x05\n        /* \"contracts/TheSmartWallet.sol\":873:900  isAllowedToSend[msg.sender] */\n      0x00\n        /* \"contracts/TheSmartWallet.sol\":889:899  msg.sender */\n      caller\n        /* \"contracts/TheSmartWallet.sol\":873:900  isAllowedToSend[msg.sender] */\n      0xffffffffffffffffffffffffffffffffffffffff\n      and\n      0xffffffffffffffffffffffffffffffffffffffff\n      and\n      dup2\n      mstore\n      0x20\n      add\n      swap1\n      dup2\n      mstore\n      0x20\n      add\n      0x00\n      keccak256\n      0x00\n      swap1\n      sload\n      swap1\n      0x0100\n      exp\n      swap1\n      div\n      0xff\n      and\n        /* \"contracts/TheSmartWallet.sol\":865:931  require(isAllowedToSend[msg.sender],\"user is not allowed to Send\") */\n      tag_87\n      jumpi\n      mload(0x40)\n      0x08c379a000000000000000000000000000000000000000000000000000000000\n      dup2\n      mstore\n      0x04\n      add\n      tag_88\n      swap1\n      tag_89\n      jump\t// in\n    tag_88:\n      mload(0x40)\n      dup1\n      swap2\n      sub\n      swap1\n      revert\n    tag_87:\n        /* \"contracts/TheSmartWallet.sol\":972:979  _amount */\n      dup3\n        /* \"contracts/TheSmartWallet.sol\":948:958  allowances */\n      0x02\n        /* \"contracts/TheSmartWallet.sol\":948:970  allowances[msg.sender] */\n      0x00\n        /* \"contracts/TheSmartWallet.sol\":959:969  msg.sender */\n      caller\n        /* \"contracts/TheSmartWallet.sol\":948:970  allowances[msg.sender] */\n      0xffffffffffffffffffffffffffffffffffffffff\n      and\n      0xffffffffffffffffffffffffffffffffffffffff\n      and\n      dup2\n      mstore\n      0x20\n      add\n      swap1\n      dup2\n      mstore\n      0x20\n      add\n      0x00\n      keccak256\n      sload\n        /* \"contracts/TheSmartWallet.sol\":948:979  allowances[msg.sender]>=_amount */\n      lt\n      iszero\n        /* \"contracts/TheSmartWallet.sol\":940:1022  require(allowances[msg.sender]>=_amount,\"Insufficient amount available, aburting\") */\n      tag_90\n      jumpi\n      mload(0x40)\n      0x08c379a000000000000000000000000000000000000000000000000000000000\n      dup2\n      mstore\n      0x04\n      add\n      tag_91\n      swap1\n      tag_92\n      jump\t// in\n    tag_91:\n      mload(0x40)\n      dup1\n      swap2\n      sub\n      swap1\n      revert\n    tag_90:\n        /* \"contracts/TheSmartWallet.sol\":1057:1064  _amount */\n      dup3\n        /* \"contracts/TheSmartWallet.sol\":1031:1041  allowances */\n      0x02\n        /* \"contracts/TheSmartWallet.sol\":1031:1053  allowances[msg.sender] */\n      0x00\n        /* \"contracts/TheSmartWallet.sol\":1042:1052  msg.sender */\n      caller\n        /* \"contracts/TheSmartWallet.sol\":1031:1053  allowances[msg.sender] */\n      0xffffffffffffffffffffffffffffffffffffffff\n      and\n      0xffffffffffffffffffffffffffffffffffffffff\n      and\n      dup2\n      mstore\n      0x20\n      add\n      swap1\n      dup2\n      mstore\n      0x20\n      add\n      0x00\n      keccak256\n      0x00\n        /* \"contracts/TheSmartWallet.sol\":1031:1064  allowances[msg.sender] -= _amount */\n      dup3\n      dup3\n      sload\n      tag_93\n      swap2\n      swap1\n      tag_94\n      jump\t// in\n    tag_93:\n      swap3\n      pop\n      pop\n      dup2\n      swap1\n      sstore\n      pop\n        /* \"contracts/TheSmartWallet.sol\":833:1074  if(msg.sender != owner){... */\n    tag_86:\n        /* \"contracts/TheSmartWallet.sol\":1083:1095  bool success */\n      0x00\n        /* \"contracts/TheSmartWallet.sol\":1096:1119  bytes memory returnData */\n      dup1\n        /* \"contracts/TheSmartWallet.sol\":1121:1124  _to */\n      dup6\n        /* \"contracts/TheSmartWallet.sol\":1121:1129  _to.call */\n      0xffffffffffffffffffffffffffffffffffffffff\n      and\n        /* \"contracts/TheSmartWallet.sol\":1136:1143  _amount */\n      dup6\n        /* \"contracts/TheSmartWallet.sol\":1145:1152  payload */\n      dup6\n        /* \"contracts/TheSmartWallet.sol\":1121:1153  _to.call{value:_amount}(payload) */\n      mload(0x40)\n      tag_95\n      swap2\n      swap1\n      tag_96\n      jump\t// in\n    tag_95:\n      0x00\n      mload(0x40)\n      dup1\n      dup4\n      sub\n      dup2\n      dup6\n      dup8\n      gas\n      call\n      swap3\n      pop\n      pop\n      pop\n      returndatasize\n      dup1\n      0x00\n      dup2\n      eq\n      tag_99\n      jumpi\n      mload(0x40)\n      swap2\n      pop\n      and(add(returndatasize, 0x3f), not(0x1f))\n      dup3\n      add\n      0x40\n      mstore\n      returndatasize\n      dup3\n      mstore\n      returndatasize\n      0x00\n      0x20\n      dup5\n      add\n      returndatacopy\n      jump(tag_98)\n    tag_99:\n      0x60\n      swap2\n      pop\n    tag_98:\n      pop\n        /* \"contracts/TheSmartWallet.sol\":1082:1153  (bool success,bytes memory returnData)=_to.call{value:_amount}(payload) */\n      swap2\n      pop\n      swap2\n      pop\n        /* \"contracts/TheSmartWallet.sol\":1170:1177  success */\n      dup2\n        /* \"contracts/TheSmartWallet.sol\":1162:1178  require(success) */\n      tag_100\n      jumpi\n      0x00\n      dup1\n      revert\n    tag_100:\n        /* \"contracts/TheSmartWallet.sol\":1194:1204  returnData */\n      dup1\n        /* \"contracts/TheSmartWallet.sol\":1187:1204  return returnData */\n      swap3\n      pop\n      pop\n      pop\n        /* \"contracts/TheSmartWallet.sol\":722:1212  function transfer(address payable  _to,uint _amount,bytes memory payload) public returns(bytes memory){... */\n      swap4\n      swap3\n      pop\n      pop\n      pop\n      jump\t// out\n        /* \"contracts/TheSmartWallet.sol\":589:645  uint public constant confirmationsFromGaurdianForReset=3 */\n    tag_57:\n        /* \"contracts/TheSmartWallet.sol\":644:645  3 */\n      0x03\n        /* \"contracts/TheSmartWallet.sol\":589:645  uint public constant confirmationsFromGaurdianForReset=3 */\n      dup2\n      jump\t// out\n        /* \"contracts/TheSmartWallet.sol\":458:498  mapping(address => bool) public gaurdian */\n    tag_62:\n      mstore(0x20, 0x04)\n      dup1\n      0x00\n      mstore\n      keccak256(0x00, 0x40)\n      0x00\n      swap2\n      pop\n      sload\n      swap1\n      0x0100\n      exp\n      swap1\n      div\n      0xff\n      and\n      dup2\n      jump\t// out\n        /* \"#utility.yul\":7:82   */\n    tag_101:\n        /* \"#utility.yul\":40:46   */\n      0x00\n        /* \"#utility.yul\":73:75   */\n      0x40\n        /* \"#utility.yul\":67:76   */\n      mload\n        /* \"#utility.yul\":57:76   */\n      swap1\n      pop\n        /* \"#utility.yul\":7:82   */\n      swap1\n      jump\t// out\n        /* \"#utility.yul\":88:205   */\n    tag_102:\n        /* \"#utility.yul\":197:198   */\n      0x00\n        /* \"#utility.yul\":194:195   */\n      dup1\n        /* \"#utility.yul\":187:199   */\n      revert\n        /* \"#utility.yul\":211:328   */\n    tag_103:\n        /* \"#utility.yul\":320:321   */\n      0x00\n        /* \"#utility.yul\":317:318   */\n      dup1\n        /* \"#utility.yul\":310:322   */\n      revert\n        /* \"#utility.yul\":334:460   */\n    tag_104:\n        /* \"#utility.yul\":371:378   */\n      0x00\n        /* \"#utility.yul\":411:453   */\n      0xffffffffffffffffffffffffffffffffffffffff\n        /* \"#utility.yul\":404:409   */\n      dup3\n        /* \"#utility.yul\":400:454   */\n      and\n        /* \"#utility.yul\":389:454   */\n      swap1\n      pop\n        /* \"#utility.yul\":334:460   */\n      swap2\n      swap1\n      pop\n      jump\t// out\n        /* \"#utility.yul\":466:562   */\n    tag_105:\n        /* \"#utility.yul\":503:510   */\n      0x00\n        /* \"#utility.yul\":532:556   */\n      tag_156\n        /* \"#utility.yul\":550:555   */\n      dup3\n        /* \"#utility.yul\":532:556   */\n      tag_104\n      jump\t// in\n    tag_156:\n        /* \"#utility.yul\":521:556   */\n      swap1\n      pop\n        /* \"#utility.yul\":466:562   */\n      swap2\n      swap1\n      pop\n      jump\t// out\n        /* \"#utility.yul\":568:690   */\n    tag_106:\n        /* \"#utility.yul\":641:665   */\n      tag_158\n        /* \"#utility.yul\":659:664   */\n      dup2\n        /* \"#utility.yul\":641:665   */\n      tag_105\n      jump\t// in\n    tag_158:\n        /* \"#utility.yul\":634:639   */\n      dup2\n        /* \"#utility.yul\":631:666   */\n      eq\n        /* \"#utility.yul\":621:684   */\n      tag_159\n      jumpi\n        /* \"#utility.yul\":680:681   */\n      0x00\n        /* \"#utility.yul\":677:678   */\n      dup1\n        /* \"#utility.yul\":670:682   */\n      revert\n        /* \"#utility.yul\":621:684   */\n    tag_159:\n        /* \"#utility.yul\":568:690   */\n      pop\n      jump\t// out\n        /* \"#utility.yul\":696:835   */\n    tag_107:\n        /* \"#utility.yul\":742:747   */\n      0x00\n        /* \"#utility.yul\":780:786   */\n      dup2\n        /* \"#utility.yul\":767:787   */\n      calldataload\n        /* \"#utility.yul\":758:787   */\n      swap1\n      pop\n        /* \"#utility.yul\":796:829   */\n      tag_161\n        /* \"#utility.yul\":823:828   */\n      dup2\n        /* \"#utility.yul\":796:829   */\n      tag_106\n      jump\t// in\n    tag_161:\n        /* \"#utility.yul\":696:835   */\n      swap3\n      swap2\n      pop\n      pop\n      jump\t// out\n        /* \"#utility.yul\":841:1170   */\n    tag_18:\n        /* \"#utility.yul\":900:906   */\n      0x00\n        /* \"#utility.yul\":949:951   */\n      0x20\n        /* \"#utility.yul\":937:946   */\n      dup3\n        /* \"#utility.yul\":928:935   */\n      dup5\n        /* \"#utility.yul\":924:947   */\n      sub\n        /* \"#utility.yul\":920:952   */\n      slt\n        /* \"#utility.yul\":917:1036   */\n      iszero\n      tag_163\n      jumpi\n        /* \"#utility.yul\":955:1034   */\n      tag_164\n      tag_102\n      jump\t// in\n    tag_164:\n        /* \"#utility.yul\":917:1036   */\n    tag_163:\n        /* \"#utility.yul\":1075:1076   */\n      0x00\n        /* \"#utility.yul\":1100:1153   */\n      tag_165\n        /* \"#utility.yul\":1145:1152   */\n      dup5\n        /* \"#utility.yul\":1136:1142   */\n      dup3\n        /* \"#utility.yul\":1125:1134   */\n      dup6\n        /* \"#utility.yul\":1121:1143   */\n      add\n        /* \"#utility.yul\":1100:1153   */\n      tag_107\n      jump\t// in\n    tag_165:\n        /* \"#utility.yul\":1090:1153   */\n      swap2\n      pop\n        /* \"#utility.yul\":1046:1163   */\n      pop\n        /* \"#utility.yul\":841:1170   */\n      swap3\n      swap2\n      pop\n      pop\n      jump\t// out\n        /* \"#utility.yul\":1176:1266   */\n    tag_108:\n        /* \"#utility.yul\":1210:1217   */\n      0x00\n        /* \"#utility.yul\":1253:1258   */\n      dup2\n        /* \"#utility.yul\":1246:1259   */\n      iszero\n        /* \"#utility.yul\":1239:1260   */\n      iszero\n        /* \"#utility.yul\":1228:1260   */\n      swap1\n      pop\n        /* \"#utility.yul\":1176:1266   */\n      swap2\n      swap1\n      pop\n      jump\t// out\n        /* \"#utility.yul\":1272:1381   */\n    tag_109:\n        /* \"#utility.yul\":1353:1374   */\n      tag_168\n        /* \"#utility.yul\":1368:1373   */\n      dup2\n        /* \"#utility.yul\":1353:1374   */\n      tag_108\n      jump\t// in\n    tag_168:\n        /* \"#utility.yul\":1348:1351   */\n      dup3\n        /* \"#utility.yul\":1341:1375   */\n      mstore\n        /* \"#utility.yul\":1272:1381   */\n      pop\n      pop\n      jump\t// out\n        /* \"#utility.yul\":1387:1597   */\n    tag_21:\n        /* \"#utility.yul\":1474:1478   */\n      0x00\n        /* \"#utility.yul\":1512:1514   */\n      0x20\n        /* \"#utility.yul\":1501:1510   */\n      dup3\n        /* \"#utility.yul\":1497:1515   */\n      add\n        /* \"#utility.yul\":1489:1515   */\n      swap1\n      pop\n        /* \"#utility.yul\":1525:1590   */\n      tag_170\n        /* \"#utility.yul\":1587:1588   */\n      0x00\n        /* \"#utility.yul\":1576:1585   */\n      dup4\n        /* \"#utility.yul\":1572:1589   */\n      add\n        /* \"#utility.yul\":1563:1569   */\n      dup5\n        /* \"#utility.yul\":1525:1590   */\n      tag_109\n      jump\t// in\n    tag_170:\n        /* \"#utility.yul\":1387:1597   */\n      swap3\n      swap2\n      pop\n      pop\n      jump\t// out\n        /* \"#utility.yul\":1603:1680   */\n    tag_110:\n        /* \"#utility.yul\":1640:1647   */\n      0x00\n        /* \"#utility.yul\":1669:1674   */\n      dup2\n        /* \"#utility.yul\":1658:1674   */\n      swap1\n      pop\n        /* \"#utility.yul\":1603:1680   */\n      swap2\n      swap1\n      pop\n      jump\t// out\n        /* \"#utility.yul\":1686:1808   */\n    tag_111:\n        /* \"#utility.yul\":1759:1783   */\n      tag_173\n        /* \"#utility.yul\":1777:1782   */\n      dup2\n        /* \"#utility.yul\":1759:1783   */\n      tag_110\n      jump\t// in\n    tag_173:\n        /* \"#utility.yul\":1752:1757   */\n      dup2\n        /* \"#utility.yul\":1749:1784   */\n      eq\n        /* \"#utility.yul\":1739:1802   */\n      tag_174\n      jumpi\n        /* \"#utility.yul\":1798:1799   */\n      0x00\n        /* \"#utility.yul\":1795:1796   */\n      dup1\n        /* \"#utility.yul\":1788:1800   */\n      revert\n        /* \"#utility.yul\":1739:1802   */\n    tag_174:\n        /* \"#utility.yul\":1686:1808   */\n      pop\n      jump\t// out\n        /* \"#utility.yul\":1814:1953   */\n    tag_112:\n        /* \"#utility.yul\":1860:1865   */\n      0x00\n        /* \"#utility.yul\":1898:1904   */\n      dup2\n        /* \"#utility.yul\":1885:1905   */\n      calldataload\n        /* \"#utility.yul\":1876:1905   */\n      swap1\n      pop\n        /* \"#utility.yul\":1914:1947   */\n      tag_176\n        /* \"#utility.yul\":1941:1946   */\n      dup2\n        /* \"#utility.yul\":1914:1947   */\n      tag_111\n      jump\t// in\n    tag_176:\n        /* \"#utility.yul\":1814:1953   */\n      swap3\n      swap2\n      pop\n      pop\n      jump\t// out\n        /* \"#utility.yul\":1959:2433   */\n    tag_25:\n        /* \"#utility.yul\":2027:2033   */\n      0x00\n        /* \"#utility.yul\":2035:2041   */\n      dup1\n        /* \"#utility.yul\":2084:2086   */\n      0x40\n        /* \"#utility.yul\":2072:2081   */\n      dup4\n        /* \"#utility.yul\":2063:2070   */\n      dup6\n        /* \"#utility.yul\":2059:2082   */\n      sub\n        /* \"#utility.yul\":2055:2087   */\n      slt\n        /* \"#utility.yul\":2052:2171   */\n      iszero\n      tag_178\n      jumpi\n        /* \"#utility.yul\":2090:2169   */\n      tag_179\n      tag_102\n      jump\t// in\n    tag_179:\n        /* \"#utility.yul\":2052:2171   */\n    tag_178:\n        /* \"#utility.yul\":2210:2211   */\n      0x00\n        /* \"#utility.yul\":2235:2288   */\n      tag_180\n        /* \"#utility.yul\":2280:2287   */\n      dup6\n        /* \"#utility.yul\":2271:2277   */\n      dup3\n        /* \"#utility.yul\":2260:2269   */\n      dup7\n        /* \"#utility.yul\":2256:2278   */\n      add\n        /* \"#utility.yul\":2235:2288   */\n      tag_107\n      jump\t// in\n    tag_180:\n        /* \"#utility.yul\":2225:2288   */\n      swap3\n      pop\n        /* \"#utility.yul\":2181:2298   */\n      pop\n        /* \"#utility.yul\":2337:2339   */\n      0x20\n        /* \"#utility.yul\":2363:2416   */\n      tag_181\n        /* \"#utility.yul\":2408:2415   */\n      dup6\n        /* \"#utility.yul\":2399:2405   */\n      dup3\n        /* \"#utility.yul\":2388:2397   */\n      dup7\n        /* \"#utility.yul\":2384:2406   */\n      add\n        /* \"#utility.yul\":2363:2416   */\n      tag_112\n      jump\t// in\n    tag_181:\n        /* \"#utility.yul\":2353:2416   */\n      swap2\n      pop\n        /* \"#utility.yul\":2308:2426   */\n      pop\n        /* \"#utility.yul\":1959:2433   */\n      swap3\n      pop\n      swap3\n      swap1\n      pop\n      jump\t// out\n        /* \"#utility.yul\":2439:2557   */\n    tag_113:\n        /* \"#utility.yul\":2526:2550   */\n      tag_183\n        /* \"#utility.yul\":2544:2549   */\n      dup2\n        /* \"#utility.yul\":2526:2550   */\n      tag_110\n      jump\t// in\n    tag_183:\n        /* \"#utility.yul\":2521:2524   */\n      dup3\n        /* \"#utility.yul\":2514:2551   */\n      mstore\n        /* \"#utility.yul\":2439:2557   */\n      pop\n      pop\n      jump\t// out\n        /* \"#utility.yul\":2563:2785   */\n    tag_32:\n        /* \"#utility.yul\":2656:2660   */\n      0x00\n        /* \"#utility.yul\":2694:2696   */\n      0x20\n        /* \"#utility.yul\":2683:2692   */\n      dup3\n        /* \"#utility.yul\":2679:2697   */\n      add\n        /* \"#utility.yul\":2671:2697   */\n      swap1\n      pop\n        /* \"#utility.yul\":2707:2778   */\n      tag_185\n        /* \"#utility.yul\":2775:2776   */\n      0x00\n        /* \"#utility.yul\":2764:2773   */\n      dup4\n        /* \"#utility.yul\":2760:2777   */\n      add\n        /* \"#utility.yul\":2751:2757   */\n      dup5\n        /* \"#utility.yul\":2707:2778   */\n      tag_113\n      jump\t// in\n    tag_185:\n        /* \"#utility.yul\":2563:2785   */\n      swap3\n      swap2\n      pop\n      pop\n      jump\t// out\n        /* \"#utility.yul\":2791:2895   */\n    tag_114:\n        /* \"#utility.yul\":2836:2843   */\n      0x00\n        /* \"#utility.yul\":2865:2889   */\n      tag_187\n        /* \"#utility.yul\":2883:2888   */\n      dup3\n        /* \"#utility.yul\":2865:2889   */\n      tag_104\n      jump\t// in\n    tag_187:\n        /* \"#utility.yul\":2854:2889   */\n      swap1\n      pop\n        /* \"#utility.yul\":2791:2895   */\n      swap2\n      swap1\n      pop\n      jump\t// out\n        /* \"#utility.yul\":2901:3043   */\n    tag_115:\n        /* \"#utility.yul\":3004:3036   */\n      tag_189\n        /* \"#utility.yul\":3030:3035   */\n      dup2\n        /* \"#utility.yul\":3004:3036   */\n      tag_114\n      jump\t// in\n    tag_189:\n        /* \"#utility.yul\":2999:3002   */\n      dup3\n        /* \"#utility.yul\":2992:3037   */\n      mstore\n        /* \"#utility.yul\":2901:3043   */\n      pop\n      pop\n      jump\t// out\n        /* \"#utility.yul\":3049:3303   */\n    tag_37:\n        /* \"#utility.yul\":3158:3162   */\n      0x00\n        /* \"#utility.yul\":3196:3198   */\n      0x20\n        /* \"#utility.yul\":3185:3194   */\n      dup3\n        /* \"#utility.yul\":3181:3199   */\n      add\n        /* \"#utility.yul\":3173:3199   */\n      swap1\n      pop\n        /* \"#utility.yul\":3209:3296   */\n      tag_191\n        /* \"#utility.yul\":3293:3294   */\n      0x00\n        /* \"#utility.yul\":3282:3291   */\n      dup4\n        /* \"#utility.yul\":3278:3295   */\n      add\n        /* \"#utility.yul\":3269:3275   */\n      dup5\n        /* \"#utility.yul\":3209:3296   */\n      tag_115\n      jump\t// in\n    tag_191:\n        /* \"#utility.yul\":3049:3303   */\n      swap3\n      swap2\n      pop\n      pop\n      jump\t// out\n        /* \"#utility.yul\":3309:3425   */\n    tag_116:\n        /* \"#utility.yul\":3379:3400   */\n      tag_193\n        /* \"#utility.yul\":3394:3399   */\n      dup2\n        /* \"#utility.yul\":3379:3400   */\n      tag_108\n      jump\t// in\n    tag_193:\n        /* \"#utility.yul\":3372:3377   */\n      dup2\n        /* \"#utility.yul\":3369:3401   */\n      eq\n        /* \"#utility.yul\":3359:3419   */\n      tag_194\n      jumpi\n        /* \"#utility.yul\":3415:3416   */\n      0x00\n        /* \"#utility.yul\":3412:3413   */\n      dup1\n        /* \"#utility.yul\":3405:3417   */\n      revert\n        /* \"#utility.yul\":3359:3419   */\n    tag_194:\n        /* \"#utility.yul\":3309:3425   */\n      pop\n      jump\t// out\n        /* \"#utility.yul\":3431:3564   */\n    tag_117:\n        /* \"#utility.yul\":3474:3479   */\n      0x00\n        /* \"#utility.yul\":3512:3518   */\n      dup2\n        /* \"#utility.yul\":3499:3519   */\n      calldataload\n        /* \"#utility.yul\":3490:3519   */\n      swap1\n      pop\n        /* \"#utility.yul\":3528:3558   */\n      tag_196\n        /* \"#utility.yul\":3552:3557   */\n      dup2\n        /* \"#utility.yul\":3528:3558   */\n      tag_116\n      jump\t// in\n    tag_196:\n        /* \"#utility.yul\":3431:3564   */\n      swap3\n      swap2\n      pop\n      pop\n      jump\t// out\n        /* \"#utility.yul\":3570:4038   */\n    tag_41:\n        /* \"#utility.yul\":3635:3641   */\n      0x00\n        /* \"#utility.yul\":3643:3649   */\n      dup1\n        /* \"#utility.yul\":3692:3694   */\n      0x40\n        /* \"#utility.yul\":3680:3689   */\n      dup4\n        /* \"#utility.yul\":3671:3678   */\n      dup6\n        /* \"#utility.yul\":3667:3690   */\n      sub\n        /* \"#utility.yul\":3663:3695   */\n      slt\n        /* \"#utility.yul\":3660:3779   */\n      iszero\n      tag_198\n      jumpi\n        /* \"#utility.yul\":3698:3777   */\n      tag_199\n      tag_102\n      jump\t// in\n    tag_199:\n        /* \"#utility.yul\":3660:3779   */\n    tag_198:\n        /* \"#utility.yul\":3818:3819   */\n      0x00\n        /* \"#utility.yul\":3843:3896   */\n      tag_200\n        /* \"#utility.yul\":3888:3895   */\n      dup6\n        /* \"#utility.yul\":3879:3885   */\n      dup3\n        /* \"#utility.yul\":3868:3877   */\n      dup7\n        /* \"#utility.yul\":3864:3886   */\n      add\n        /* \"#utility.yul\":3843:3896   */\n      tag_107\n      jump\t// in\n    tag_200:\n        /* \"#utility.yul\":3833:3896   */\n      swap3\n      pop\n        /* \"#utility.yul\":3789:3906   */\n      pop\n        /* \"#utility.yul\":3945:3947   */\n      0x20\n        /* \"#utility.yul\":3971:4021   */\n      tag_201\n        /* \"#utility.yul\":4013:4020   */\n      dup6\n        /* \"#utility.yul\":4004:4010   */\n      dup3\n        /* \"#utility.yul\":3993:4002   */\n      dup7\n        /* \"#utility.yul\":3989:4011   */\n      add\n        /* \"#utility.yul\":3971:4021   */\n      tag_117\n      jump\t// in\n    tag_201:\n        /* \"#utility.yul\":3961:4021   */\n      swap2\n      pop\n        /* \"#utility.yul\":3916:4031   */\n      pop\n        /* \"#utility.yul\":3570:4038   */\n      swap3\n      pop\n      swap3\n      swap1\n      pop\n      jump\t// out\n        /* \"#utility.yul\":4044:4182   */\n    tag_118:\n        /* \"#utility.yul\":4125:4157   */\n      tag_203\n        /* \"#utility.yul\":4151:4156   */\n      dup2\n        /* \"#utility.yul\":4125:4157   */\n      tag_114\n      jump\t// in\n    tag_203:\n        /* \"#utility.yul\":4118:4123   */\n      dup2\n        /* \"#utility.yul\":4115:4158   */\n      eq\n        /* \"#utility.yul\":4105:4176   */\n      tag_204\n      jumpi\n        /* \"#utility.yul\":4172:4173   */\n      0x00\n        /* \"#utility.yul\":4169:4170   */\n      dup1\n        /* \"#utility.yul\":4162:4174   */\n      revert\n        /* \"#utility.yul\":4105:4176   */\n    tag_204:\n        /* \"#utility.yul\":4044:4182   */\n      pop\n      jump\t// out\n        /* \"#utility.yul\":4188:4343   */\n    tag_119:\n        /* \"#utility.yul\":4242:4247   */\n      0x00\n        /* \"#utility.yul\":4280:4286   */\n      dup2\n        /* \"#utility.yul\":4267:4287   */\n      calldataload\n        /* \"#utility.yul\":4258:4287   */\n      swap1\n      pop\n        /* \"#utility.yul\":4296:4337   */\n      tag_206\n        /* \"#utility.yul\":4331:4336   */\n      dup2\n        /* \"#utility.yul\":4296:4337   */\n      tag_118\n      jump\t// in\n    tag_206:\n        /* \"#utility.yul\":4188:4343   */\n      swap3\n      swap2\n      pop\n      pop\n      jump\t// out\n        /* \"#utility.yul\":4349:4694   */\n    tag_46:\n        /* \"#utility.yul\":4416:4422   */\n      0x00\n        /* \"#utility.yul\":4465:4467   */\n      0x20\n        /* \"#utility.yul\":4453:4462   */\n      dup3\n        /* \"#utility.yul\":4444:4451   */\n      dup5\n        /* \"#utility.yul\":4440:4463   */\n      sub\n        /* \"#utility.yul\":4436:4468   */\n      slt\n        /* \"#utility.yul\":4433:4552   */\n      iszero\n      tag_208\n      jumpi\n        /* \"#utility.yul\":4471:4550   */\n      tag_209\n      tag_102\n      jump\t// in\n    tag_209:\n        /* \"#utility.yul\":4433:4552   */\n    tag_208:\n        /* \"#utility.yul\":4591:4592   */\n      0x00\n        /* \"#utility.yul\":4616:4677   */\n      tag_210\n        /* \"#utility.yul\":4669:4676   */\n      dup5\n        /* \"#utility.yul\":4660:4666   */\n      dup3\n        /* \"#utility.yul\":4649:4658   */\n      dup6\n        /* \"#utility.yul\":4645:4667   */\n      add\n        /* \"#utility.yul\":4616:4677   */\n      tag_119\n      jump\t// in\n    tag_210:\n        /* \"#utility.yul\":4606:4677   */\n      swap2\n      pop\n        /* \"#utility.yul\":4562:4687   */\n      pop\n        /* \"#utility.yul\":4349:4694   */\n      swap3\n      swap2\n      pop\n      pop\n      jump\t// out\n        /* \"#utility.yul\":4700:4817   */\n    tag_120:\n        /* \"#utility.yul\":4809:4810   */\n      0x00\n        /* \"#utility.yul\":4806:4807   */\n      dup1\n        /* \"#utility.yul\":4799:4811   */\n      revert\n        /* \"#utility.yul\":4823:4940   */\n    tag_121:\n        /* \"#utility.yul\":4932:4933   */\n      0x00\n        /* \"#utility.yul\":4929:4930   */\n      dup1\n        /* \"#utility.yul\":4922:4934   */\n      revert\n        /* \"#utility.yul\":4946:5048   */\n    tag_122:\n        /* \"#utility.yul\":4987:4993   */\n      0x00\n        /* \"#utility.yul\":5038:5040   */\n      0x1f\n        /* \"#utility.yul\":5034:5041   */\n      not\n        /* \"#utility.yul\":5029:5031   */\n      0x1f\n        /* \"#utility.yul\":5022:5027   */\n      dup4\n        /* \"#utility.yul\":5018:5032   */\n      add\n        /* \"#utility.yul\":5014:5042   */\n      and\n        /* \"#utility.yul\":5004:5042   */\n      swap1\n      pop\n        /* \"#utility.yul\":4946:5048   */\n      swap2\n      swap1\n      pop\n      jump\t// out\n        /* \"#utility.yul\":5054:5234   */\n    tag_123:\n        /* \"#utility.yul\":5102:5179   */\n      0x4e487b7100000000000000000000000000000000000000000000000000000000\n        /* \"#utility.yul\":5099:5100   */\n      0x00\n        /* \"#utility.yul\":5092:5180   */\n      mstore\n        /* \"#utility.yul\":5199:5203   */\n      0x41\n        /* \"#utility.yul\":5196:5197   */\n      0x04\n        /* \"#utility.yul\":5189:5204   */\n      mstore\n        /* \"#utility.yul\":5223:5227   */\n      0x24\n        /* \"#utility.yul\":5220:5221   */\n      0x00\n        /* \"#utility.yul\":5213:5228   */\n      revert\n        /* \"#utility.yul\":5240:5521   */\n    tag_124:\n        /* \"#utility.yul\":5323:5350   */\n      tag_216\n        /* \"#utility.yul\":5345:5349   */\n      dup3\n        /* \"#utility.yul\":5323:5350   */\n      tag_122\n      jump\t// in\n    tag_216:\n        /* \"#utility.yul\":5315:5321   */\n      dup2\n        /* \"#utility.yul\":5311:5351   */\n      add\n        /* \"#utility.yul\":5453:5459   */\n      dup2\n        /* \"#utility.yul\":5441:5451   */\n      dup2\n        /* \"#utility.yul\":5438:5460   */\n      lt\n        /* \"#utility.yul\":5417:5435   */\n      0xffffffffffffffff\n        /* \"#utility.yul\":5405:5415   */\n      dup3\n        /* \"#utility.yul\":5402:5436   */\n      gt\n        /* \"#utility.yul\":5399:5461   */\n      or\n        /* \"#utility.yul\":5396:5484   */\n      iszero\n      tag_217\n      jumpi\n        /* \"#utility.yul\":5464:5482   */\n      tag_218\n      tag_123\n      jump\t// in\n    tag_218:\n        /* \"#utility.yul\":5396:5484   */\n    tag_217:\n        /* \"#utility.yul\":5504:5514   */\n      dup1\n        /* \"#utility.yul\":5500:5502   */\n      0x40\n        /* \"#utility.yul\":5493:5515   */\n      mstore\n        /* \"#utility.yul\":5283:5521   */\n      pop\n        /* \"#utility.yul\":5240:5521   */\n      pop\n      pop\n      jump\t// out\n        /* \"#utility.yul\":5527:5656   */\n    tag_125:\n        /* \"#utility.yul\":5561:5567   */\n      0x00\n        /* \"#utility.yul\":5588:5608   */\n      tag_220\n      tag_101\n      jump\t// in\n    tag_220:\n        /* \"#utility.yul\":5578:5608   */\n      swap1\n      pop\n        /* \"#utility.yul\":5617:5650   */\n      tag_221\n        /* \"#utility.yul\":5645:5649   */\n      dup3\n        /* \"#utility.yul\":5637:5643   */\n      dup3\n        /* \"#utility.yul\":5617:5650   */\n      tag_124\n      jump\t// in\n    tag_221:\n        /* \"#utility.yul\":5527:5656   */\n      swap2\n      swap1\n      pop\n      jump\t// out\n        /* \"#utility.yul\":5662:5969   */\n    tag_126:\n        /* \"#utility.yul\":5723:5727   */\n      0x00\n        /* \"#utility.yul\":5813:5831   */\n      0xffffffffffffffff\n        /* \"#utility.yul\":5805:5811   */\n      dup3\n        /* \"#utility.yul\":5802:5832   */\n      gt\n        /* \"#utility.yul\":5799:5855   */\n      iszero\n      tag_223\n      jumpi\n        /* \"#utility.yul\":5835:5853   */\n      tag_224\n      tag_123\n      jump\t// in\n    tag_224:\n        /* \"#utility.yul\":5799:5855   */\n    tag_223:\n        /* \"#utility.yul\":5873:5902   */\n      tag_225\n        /* \"#utility.yul\":5895:5901   */\n      dup3\n        /* \"#utility.yul\":5873:5902   */\n      tag_122\n      jump\t// in\n    tag_225:\n        /* \"#utility.yul\":5865:5902   */\n      swap1\n      pop\n        /* \"#utility.yul\":5957:5961   */\n      0x20\n        /* \"#utility.yul\":5951:5955   */\n      dup2\n        /* \"#utility.yul\":5947:5962   */\n      add\n        /* \"#utility.yul\":5939:5962   */\n      swap1\n      pop\n        /* \"#utility.yul\":5662:5969   */\n      swap2\n      swap1\n      pop\n      jump\t// out\n        /* \"#utility.yul\":5975:6121   */\n    tag_127:\n        /* \"#utility.yul\":6072:6078   */\n      dup3\n        /* \"#utility.yul\":6067:6070   */\n      dup2\n        /* \"#utility.yul\":6062:6065   */\n      dup4\n        /* \"#utility.yul\":6049:6079   */\n      calldatacopy\n        /* \"#utility.yul\":6113:6114   */\n      0x00\n        /* \"#utility.yul\":6104:6110   */\n      dup4\n        /* \"#utility.yul\":6099:6102   */\n      dup4\n        /* \"#utility.yul\":6095:6111   */\n      add\n        /* \"#utility.yul\":6088:6115   */\n      mstore\n        /* \"#utility.yul\":5975:6121   */\n      pop\n      pop\n      pop\n      jump\t// out\n        /* \"#utility.yul\":6127:6550   */\n    tag_128:\n        /* \"#utility.yul\":6204:6209   */\n      0x00\n        /* \"#utility.yul\":6229:6294   */\n      tag_228\n        /* \"#utility.yul\":6245:6293   */\n      tag_229\n        /* \"#utility.yul\":6286:6292   */\n      dup5\n        /* \"#utility.yul\":6245:6293   */\n      tag_126\n      jump\t// in\n    tag_229:\n        /* \"#utility.yul\":6229:6294   */\n      tag_125\n      jump\t// in\n    tag_228:\n        /* \"#utility.yul\":6220:6294   */\n      swap1\n      pop\n        /* \"#utility.yul\":6317:6323   */\n      dup3\n        /* \"#utility.yul\":6310:6315   */\n      dup2\n        /* \"#utility.yul\":6303:6324   */\n      mstore\n        /* \"#utility.yul\":6355:6359   */\n      0x20\n        /* \"#utility.yul\":6348:6353   */\n      dup2\n        /* \"#utility.yul\":6344:6360   */\n      add\n        /* \"#utility.yul\":6393:6396   */\n      dup5\n        /* \"#utility.yul\":6384:6390   */\n      dup5\n        /* \"#utility.yul\":6379:6382   */\n      dup5\n        /* \"#utility.yul\":6375:6391   */\n      add\n        /* \"#utility.yul\":6372:6397   */\n      gt\n        /* \"#utility.yul\":6369:6481   */\n      iszero\n      tag_230\n      jumpi\n        /* \"#utility.yul\":6400:6479   */\n      tag_231\n      tag_121\n      jump\t// in\n    tag_231:\n        /* \"#utility.yul\":6369:6481   */\n    tag_230:\n        /* \"#utility.yul\":6490:6544   */\n      tag_232\n        /* \"#utility.yul\":6537:6543   */\n      dup5\n        /* \"#utility.yul\":6532:6535   */\n      dup3\n        /* \"#utility.yul\":6527:6530   */\n      dup6\n        /* \"#utility.yul\":6490:6544   */\n      tag_127\n      jump\t// in\n    tag_232:\n        /* \"#utility.yul\":6210:6550   */\n      pop\n        /* \"#utility.yul\":6127:6550   */\n      swap4\n      swap3\n      pop\n      pop\n      pop\n      jump\t// out\n        /* \"#utility.yul\":6569:6907   */\n    tag_129:\n        /* \"#utility.yul\":6624:6629   */\n      0x00\n        /* \"#utility.yul\":6673:6676   */\n      dup3\n        /* \"#utility.yul\":6666:6670   */\n      0x1f\n        /* \"#utility.yul\":6658:6664   */\n      dup4\n        /* \"#utility.yul\":6654:6671   */\n      add\n        /* \"#utility.yul\":6650:6677   */\n      slt\n        /* \"#utility.yul\":6640:6762   */\n      tag_234\n      jumpi\n        /* \"#utility.yul\":6681:6760   */\n      tag_235\n      tag_120\n      jump\t// in\n    tag_235:\n        /* \"#utility.yul\":6640:6762   */\n    tag_234:\n        /* \"#utility.yul\":6798:6804   */\n      dup2\n        /* \"#utility.yul\":6785:6805   */\n      calldataload\n        /* \"#utility.yul\":6823:6901   */\n      tag_236\n        /* \"#utility.yul\":6897:6900   */\n      dup5\n        /* \"#utility.yul\":6889:6895   */\n      dup3\n        /* \"#utility.yul\":6882:6886   */\n      0x20\n        /* \"#utility.yul\":6874:6880   */\n      dup7\n        /* \"#utility.yul\":6870:6887   */\n      add\n        /* \"#utility.yul\":6823:6901   */\n      tag_128\n      jump\t// in\n    tag_236:\n        /* \"#utility.yul\":6814:6901   */\n      swap2\n      pop\n        /* \"#utility.yul\":6630:6907   */\n      pop\n        /* \"#utility.yul\":6569:6907   */\n      swap3\n      swap2\n      pop\n      pop\n      jump\t// out\n        /* \"#utility.yul\":6913:7726   */\n    tag_51:\n        /* \"#utility.yul\":7007:7013   */\n      0x00\n        /* \"#utility.yul\":7015:7021   */\n      dup1\n        /* \"#utility.yul\":7023:7029   */\n      0x00\n        /* \"#utility.yul\":7072:7074   */\n      0x60\n        /* \"#utility.yul\":7060:7069   */\n      dup5\n        /* \"#utility.yul\":7051:7058   */\n      dup7\n        /* \"#utility.yul\":7047:7070   */\n      sub\n        /* \"#utility.yul\":7043:7075   */\n      slt\n        /* \"#utility.yul\":7040:7159   */\n      iszero\n      tag_238\n      jumpi\n        /* \"#utility.yul\":7078:7157   */\n      tag_239\n      tag_102\n      jump\t// in\n    tag_239:\n        /* \"#utility.yul\":7040:7159   */\n    tag_238:\n        /* \"#utility.yul\":7198:7199   */\n      0x00\n        /* \"#utility.yul\":7223:7284   */\n      tag_240\n        /* \"#utility.yul\":7276:7283   */\n      dup7\n        /* \"#utility.yul\":7267:7273   */\n      dup3\n        /* \"#utility.yul\":7256:7265   */\n      dup8\n        /* \"#utility.yul\":7252:7274   */\n      add\n        /* \"#utility.yul\":7223:7284   */\n      tag_119\n      jump\t// in\n    tag_240:\n        /* \"#utility.yul\":7213:7284   */\n      swap4\n      pop\n        /* \"#utility.yul\":7169:7294   */\n      pop\n        /* \"#utility.yul\":7333:7335   */\n      0x20\n        /* \"#utility.yul\":7359:7412   */\n      tag_241\n        /* \"#utility.yul\":7404:7411   */\n      dup7\n        /* \"#utility.yul\":7395:7401   */\n      dup3\n        /* \"#utility.yul\":7384:7393   */\n      dup8\n        /* \"#utility.yul\":7380:7402   */\n      add\n        /* \"#utility.yul\":7359:7412   */\n      tag_112\n      jump\t// in\n    tag_241:\n        /* \"#utility.yul\":7349:7412   */\n      swap3\n      pop\n        /* \"#utility.yul\":7304:7422   */\n      pop\n        /* \"#utility.yul\":7489:7491   */\n      0x40\n        /* \"#utility.yul\":7478:7487   */\n      dup5\n        /* \"#utility.yul\":7474:7492   */\n      add\n        /* \"#utility.yul\":7461:7493   */\n      calldataload\n        /* \"#utility.yul\":7520:7538   */\n      0xffffffffffffffff\n        /* \"#utility.yul\":7512:7518   */\n      dup2\n        /* \"#utility.yul\":7509:7539   */\n      gt\n        /* \"#utility.yul\":7506:7623   */\n      iszero\n      tag_242\n      jumpi\n        /* \"#utility.yul\":7542:7621   */\n      tag_243\n      tag_103\n      jump\t// in\n    tag_243:\n        /* \"#utility.yul\":7506:7623   */\n    tag_242:\n        /* \"#utility.yul\":7647:7709   */\n      tag_244\n        /* \"#utility.yul\":7701:7708   */\n      dup7\n        /* \"#utility.yul\":7692:7698   */\n      dup3\n        /* \"#utility.yul\":7681:7690   */\n      dup8\n        /* \"#utility.yul\":7677:7699   */\n      add\n        /* \"#utility.yul\":7647:7709   */\n      tag_129\n      jump\t// in\n    tag_244:\n        /* \"#utility.yul\":7637:7709   */\n      swap2\n      pop\n        /* \"#utility.yul\":7432:7719   */\n      pop\n        /* \"#utility.yul\":6913:7726   */\n      swap3\n      pop\n      swap3\n      pop\n      swap3\n      jump\t// out\n        /* \"#utility.yul\":7732:7830   */\n    tag_130:\n        /* \"#utility.yul\":7783:7789   */\n      0x00\n        /* \"#utility.yul\":7817:7822   */\n      dup2\n        /* \"#utility.yul\":7811:7823   */\n      mload\n        /* \"#utility.yul\":7801:7823   */\n      swap1\n      pop\n        /* \"#utility.yul\":7732:7830   */\n      swap2\n      swap1\n      pop\n      jump\t// out\n        /* \"#utility.yul\":7836:8004   */\n    tag_131:\n        /* \"#utility.yul\":7919:7930   */\n      0x00\n        /* \"#utility.yul\":7953:7959   */\n      dup3\n        /* \"#utility.yul\":7948:7951   */\n      dup3\n        /* \"#utility.yul\":7941:7960   */\n      mstore\n        /* \"#utility.yul\":7993:7997   */\n      0x20\n        /* \"#utility.yul\":7988:7991   */\n      dup3\n        /* \"#utility.yul\":7984:7998   */\n      add\n        /* \"#utility.yul\":7969:7998   */\n      swap1\n      pop\n        /* \"#utility.yul\":7836:8004   */\n      swap3\n      swap2\n      pop\n      pop\n      jump\t// out\n        /* \"#utility.yul\":8010:8256   */\n    tag_132:\n        /* \"#utility.yul\":8091:8092   */\n      0x00\n        /* \"#utility.yul\":8101:8214   */\n    tag_248:\n        /* \"#utility.yul\":8115:8121   */\n      dup4\n        /* \"#utility.yul\":8112:8113   */\n      dup2\n        /* \"#utility.yul\":8109:8122   */\n      lt\n        /* \"#utility.yul\":8101:8214   */\n      iszero\n      tag_250\n      jumpi\n        /* \"#utility.yul\":8200:8201   */\n      dup1\n        /* \"#utility.yul\":8195:8198   */\n      dup3\n        /* \"#utility.yul\":8191:8202   */\n      add\n        /* \"#utility.yul\":8185:8203   */\n      mload\n        /* \"#utility.yul\":8181:8182   */\n      dup2\n        /* \"#utility.yul\":8176:8179   */\n      dup5\n        /* \"#utility.yul\":8172:8183   */\n      add\n        /* \"#utility.yul\":8165:8204   */\n      mstore\n        /* \"#utility.yul\":8137:8139   */\n      0x20\n        /* \"#utility.yul\":8134:8135   */\n      dup2\n        /* \"#utility.yul\":8130:8140   */\n      add\n        /* \"#utility.yul\":8125:8140   */\n      swap1\n      pop\n        /* \"#utility.yul\":8101:8214   */\n      jump(tag_248)\n    tag_250:\n        /* \"#utility.yul\":8248:8249   */\n      0x00\n        /* \"#utility.yul\":8239:8245   */\n      dup5\n        /* \"#utility.yul\":8234:8237   */\n      dup5\n        /* \"#utility.yul\":8230:8246   */\n      add\n        /* \"#utility.yul\":8223:8250   */\n      mstore\n        /* \"#utility.yul\":8072:8256   */\n      pop\n        /* \"#utility.yul\":8010:8256   */\n      pop\n      pop\n      pop\n      jump\t// out\n        /* \"#utility.yul\":8262:8635   */\n    tag_133:\n        /* \"#utility.yul\":8348:8351   */\n      0x00\n        /* \"#utility.yul\":8376:8414   */\n      tag_252\n        /* \"#utility.yul\":8408:8413   */\n      dup3\n        /* \"#utility.yul\":8376:8414   */\n      tag_130\n      jump\t// in\n    tag_252:\n        /* \"#utility.yul\":8430:8500   */\n      tag_253\n        /* \"#utility.yul\":8493:8499   */\n      dup2\n        /* \"#utility.yul\":8488:8491   */\n      dup6\n        /* \"#utility.yul\":8430:8500   */\n      tag_131\n      jump\t// in\n    tag_253:\n        /* \"#utility.yul\":8423:8500   */\n      swap4\n      pop\n        /* \"#utility.yul\":8509:8574   */\n      tag_254\n        /* \"#utility.yul\":8567:8573   */\n      dup2\n        /* \"#utility.yul\":8562:8565   */\n      dup6\n        /* \"#utility.yul\":8555:8559   */\n      0x20\n        /* \"#utility.yul\":8548:8553   */\n      dup7\n        /* \"#utility.yul\":8544:8560   */\n      add\n        /* \"#utility.yul\":8509:8574   */\n      tag_132\n      jump\t// in\n    tag_254:\n        /* \"#utility.yul\":8599:8628   */\n      tag_255\n        /* \"#utility.yul\":8621:8627   */\n      dup2\n        /* \"#utility.yul\":8599:8628   */\n      tag_122\n      jump\t// in\n    tag_255:\n        /* \"#utility.yul\":8594:8597   */\n      dup5\n        /* \"#utility.yul\":8590:8629   */\n      add\n        /* \"#utility.yul\":8583:8629   */\n      swap2\n      pop\n        /* \"#utility.yul\":8352:8635   */\n      pop\n        /* \"#utility.yul\":8262:8635   */\n      swap3\n      swap2\n      pop\n      pop\n      jump\t// out\n        /* \"#utility.yul\":8641:8950   */\n    tag_54:\n        /* \"#utility.yul\":8752:8756   */\n      0x00\n        /* \"#utility.yul\":8790:8792   */\n      0x20\n        /* \"#utility.yul\":8779:8788   */\n      dup3\n        /* \"#utility.yul\":8775:8793   */\n      add\n        /* \"#utility.yul\":8767:8793   */\n      swap1\n      pop\n        /* \"#utility.yul\":8839:8848   */\n      dup2\n        /* \"#utility.yul\":8833:8837   */\n      dup2\n        /* \"#utility.yul\":8829:8849   */\n      sub\n        /* \"#utility.yul\":8825:8826   */\n      0x00\n        /* \"#utility.yul\":8814:8823   */\n      dup4\n        /* \"#utility.yul\":8810:8827   */\n      add\n        /* \"#utility.yul\":8803:8850   */\n      mstore\n        /* \"#utility.yul\":8867:8943   */\n      tag_257\n        /* \"#utility.yul\":8938:8942   */\n      dup2\n        /* \"#utility.yul\":8929:8935   */\n      dup5\n        /* \"#utility.yul\":8867:8943   */\n      tag_133\n      jump\t// in\n    tag_257:\n        /* \"#utility.yul\":8859:8943   */\n      swap1\n      pop\n        /* \"#utility.yul\":8641:8950   */\n      swap3\n      swap2\n      pop\n      pop\n      jump\t// out\n        /* \"#utility.yul\":8956:9125   */\n    tag_134:\n        /* \"#utility.yul\":9040:9051   */\n      0x00\n        /* \"#utility.yul\":9074:9080   */\n      dup3\n        /* \"#utility.yul\":9069:9072   */\n      dup3\n        /* \"#utility.yul\":9062:9081   */\n      mstore\n        /* \"#utility.yul\":9114:9118   */\n      0x20\n        /* \"#utility.yul\":9109:9112   */\n      dup3\n        /* \"#utility.yul\":9105:9119   */\n      add\n        /* \"#utility.yul\":9090:9119   */\n      swap1\n      pop\n        /* \"#utility.yul\":8956:9125   */\n      swap3\n      swap2\n      pop\n      pop\n      jump\t// out\n        /* \"#utility.yul\":9131:9311   */\n    tag_135:\n        /* \"#utility.yul\":9271:9303   */\n      0x796f7520617265206e6f7420746865206f776e65722061626f7274696e670000\n        /* \"#utility.yul\":9267:9268   */\n      0x00\n        /* \"#utility.yul\":9259:9265   */\n      dup3\n        /* \"#utility.yul\":9255:9269   */\n      add\n        /* \"#utility.yul\":9248:9304   */\n      mstore\n        /* \"#utility.yul\":9131:9311   */\n      pop\n      jump\t// out\n        /* \"#utility.yul\":9317:9683   */\n    tag_136:\n        /* \"#utility.yul\":9459:9462   */\n      0x00\n        /* \"#utility.yul\":9480:9547   */\n      tag_261\n        /* \"#utility.yul\":9544:9546   */\n      0x1e\n        /* \"#utility.yul\":9539:9542   */\n      dup4\n        /* \"#utility.yul\":9480:9547   */\n      tag_134\n      jump\t// in\n    tag_261:\n        /* \"#utility.yul\":9473:9547   */\n      swap2\n      pop\n        /* \"#utility.yul\":9556:9649   */\n      tag_262\n        /* \"#utility.yul\":9645:9648   */\n      dup3\n        /* \"#utility.yul\":9556:9649   */\n      tag_135\n      jump\t// in\n    tag_262:\n        /* \"#utility.yul\":9674:9676   */\n      0x20\n        /* \"#utility.yul\":9669:9672   */\n      dup3\n        /* \"#utility.yul\":9665:9677   */\n      add\n        /* \"#utility.yul\":9658:9677   */\n      swap1\n      pop\n        /* \"#utility.yul\":9317:9683   */\n      swap2\n      swap1\n      pop\n      jump\t// out\n        /* \"#utility.yul\":9689:10108   */\n    tag_67:\n        /* \"#utility.yul\":9855:9859   */\n      0x00\n        /* \"#utility.yul\":9893:9895   */\n      0x20\n        /* \"#utility.yul\":9882:9891   */\n      dup3\n        /* \"#utility.yul\":9878:9896   */\n      add\n        /* \"#utility.yul\":9870:9896   */\n      swap1\n      pop\n        /* \"#utility.yul\":9942:9951   */\n      dup2\n        /* \"#utility.yul\":9936:9940   */\n      dup2\n        /* \"#utility.yul\":9932:9952   */\n      sub\n        /* \"#utility.yul\":9928:9929   */\n      0x00\n        /* \"#utility.yul\":9917:9926   */\n      dup4\n        /* \"#utility.yul\":9913:9930   */\n      add\n        /* \"#utility.yul\":9906:9953   */\n      mstore\n        /* \"#utility.yul\":9970:10101   */\n      tag_264\n        /* \"#utility.yul\":10096:10100   */\n      dup2\n        /* \"#utility.yul\":9970:10101   */\n      tag_136\n      jump\t// in\n    tag_264:\n        /* \"#utility.yul\":9962:10101   */\n      swap1\n      pop\n        /* \"#utility.yul\":9689:10108   */\n      swap2\n      swap1\n      pop\n      jump\t// out\n        /* \"#utility.yul\":10114:10295   */\n    tag_137:\n        /* \"#utility.yul\":10254:10287   */\n      0x796f7520617265206e6f7420746865206f776e65722c2061626f7274696e6700\n        /* \"#utility.yul\":10250:10251   */\n      0x00\n        /* \"#utility.yul\":10242:10248   */\n      dup3\n        /* \"#utility.yul\":10238:10252   */\n      add\n        /* \"#utility.yul\":10231:10288   */\n      mstore\n        /* \"#utility.yul\":10114:10295   */\n      pop\n      jump\t// out\n        /* \"#utility.yul\":10301:10667   */\n    tag_138:\n        /* \"#utility.yul\":10443:10446   */\n      0x00\n        /* \"#utility.yul\":10464:10531   */\n      tag_267\n        /* \"#utility.yul\":10528:10530   */\n      0x1f\n        /* \"#utility.yul\":10523:10526   */\n      dup4\n        /* \"#utility.yul\":10464:10531   */\n      tag_134\n      jump\t// in\n    tag_267:\n        /* \"#utility.yul\":10457:10531   */\n      swap2\n      pop\n        /* \"#utility.yul\":10540:10633   */\n      tag_268\n        /* \"#utility.yul\":10629:10632   */\n      dup3\n        /* \"#utility.yul\":10540:10633   */\n      tag_137\n      jump\t// in\n    tag_268:\n        /* \"#utility.yul\":10658:10660   */\n      0x20\n        /* \"#utility.yul\":10653:10656   */\n      dup3\n        /* \"#utility.yul\":10649:10661   */\n      add\n        /* \"#utility.yul\":10642:10661   */\n      swap1\n      pop\n        /* \"#utility.yul\":10301:10667   */\n      swap2\n      swap1\n      pop\n      jump\t// out\n        /* \"#utility.yul\":10673:11092   */\n    tag_73:\n        /* \"#utility.yul\":10839:10843   */\n      0x00\n        /* \"#utility.yul\":10877:10879   */\n      0x20\n        /* \"#utility.yul\":10866:10875   */\n      dup3\n        /* \"#utility.yul\":10862:10880   */\n      add\n        /* \"#utility.yul\":10854:10880   */\n      swap1\n      pop\n        /* \"#utility.yul\":10926:10935   */\n      dup2\n        /* \"#utility.yul\":10920:10924   */\n      dup2\n        /* \"#utility.yul\":10916:10936   */\n      sub\n        /* \"#utility.yul\":10912:10913   */\n      0x00\n        /* \"#utility.yul\":10901:10910   */\n      dup4\n        /* \"#utility.yul\":10897:10914   */\n      add\n        /* \"#utility.yul\":10890:10937   */\n      mstore\n        /* \"#utility.yul\":10954:11085   */\n      tag_270\n        /* \"#utility.yul\":11080:11084   */\n      dup2\n        /* \"#utility.yul\":10954:11085   */\n      tag_138\n      jump\t// in\n    tag_270:\n        /* \"#utility.yul\":10946:11085   */\n      swap1\n      pop\n        /* \"#utility.yul\":10673:11092   */\n      swap2\n      swap1\n      pop\n      jump\t// out\n        /* \"#utility.yul\":11098:11271   */\n    tag_139:\n        /* \"#utility.yul\":11238:11263   */\n      0x596f7520617265206e6f7420746865206761756469616e000000000000000000\n        /* \"#utility.yul\":11234:11235   */\n      0x00\n        /* \"#utility.yul\":11226:11232   */\n      dup3\n        /* \"#utility.yul\":11222:11236   */\n      add\n        /* \"#utility.yul\":11215:11264   */\n      mstore\n        /* \"#utility.yul\":11098:11271   */\n      pop\n      jump\t// out\n        /* \"#utility.yul\":11277:11643   */\n    tag_140:\n        /* \"#utility.yul\":11419:11422   */\n      0x00\n        /* \"#utility.yul\":11440:11507   */\n      tag_273\n        /* \"#utility.yul\":11504:11506   */\n      0x17\n        /* \"#utility.yul\":11499:11502   */\n      dup4\n        /* \"#utility.yul\":11440:11507   */\n      tag_134\n      jump\t// in\n    tag_273:\n        /* \"#utility.yul\":11433:11507   */\n      swap2\n      pop\n        /* \"#utility.yul\":11516:11609   */\n      tag_274\n        /* \"#utility.yul\":11605:11608   */\n      dup3\n        /* \"#utility.yul\":11516:11609   */\n      tag_139\n      jump\t// in\n    tag_274:\n        /* \"#utility.yul\":11634:11636   */\n      0x20\n        /* \"#utility.yul\":11629:11632   */\n      dup3\n        /* \"#utility.yul\":11625:11637   */\n      add\n        /* \"#utility.yul\":11618:11637   */\n      swap1\n      pop\n        /* \"#utility.yul\":11277:11643   */\n      swap2\n      swap1\n      pop\n      jump\t// out\n        /* \"#utility.yul\":11649:12068   */\n    tag_77:\n        /* \"#utility.yul\":11815:11819   */\n      0x00\n        /* \"#utility.yul\":11853:11855   */\n      0x20\n        /* \"#utility.yul\":11842:11851   */\n      dup3\n        /* \"#utility.yul\":11838:11856   */\n      add\n        /* \"#utility.yul\":11830:11856   */\n      swap1\n      pop\n        /* \"#utility.yul\":11902:11911   */\n      dup2\n        /* \"#utility.yul\":11896:11900   */\n      dup2\n        /* \"#utility.yul\":11892:11912   */\n      sub\n        /* \"#utility.yul\":11888:11889   */\n      0x00\n        /* \"#utility.yul\":11877:11886   */\n      dup4\n        /* \"#utility.yul\":11873:11890   */\n      add\n        /* \"#utility.yul\":11866:11913   */\n      mstore\n        /* \"#utility.yul\":11930:12061   */\n      tag_276\n        /* \"#utility.yul\":12056:12060   */\n      dup2\n        /* \"#utility.yul\":11930:12061   */\n      tag_140\n      jump\t// in\n    tag_276:\n        /* \"#utility.yul\":11922:12061   */\n      swap1\n      pop\n        /* \"#utility.yul\":11649:12068   */\n      swap2\n      swap1\n      pop\n      jump\t// out\n        /* \"#utility.yul\":12074:12232   */\n    tag_141:\n        /* \"#utility.yul\":12214:12224   */\n      0x41626f7274696e67000000000000000000000000000000000000000000000000\n        /* \"#utility.yul\":12210:12211   */\n      0x00\n        /* \"#utility.yul\":12202:12208   */\n      dup3\n        /* \"#utility.yul\":12198:12212   */\n      add\n        /* \"#utility.yul\":12191:12225   */\n      mstore\n        /* \"#utility.yul\":12074:12232   */\n      pop\n      jump\t// out\n        /* \"#utility.yul\":12238:12603   */\n    tag_142:\n        /* \"#utility.yul\":12380:12383   */\n      0x00\n        /* \"#utility.yul\":12401:12467   */\n      tag_279\n        /* \"#utility.yul\":12465:12466   */\n      0x08\n        /* \"#utility.yul\":12460:12463   */\n      dup4\n        /* \"#utility.yul\":12401:12467   */\n      tag_134\n      jump\t// in\n    tag_279:\n        /* \"#utility.yul\":12394:12467   */\n      swap2\n      pop\n        /* \"#utility.yul\":12476:12569   */\n      tag_280\n        /* \"#utility.yul\":12565:12568   */\n      dup3\n        /* \"#utility.yul\":12476:12569   */\n      tag_141\n      jump\t// in\n    tag_280:\n        /* \"#utility.yul\":12594:12596   */\n      0x20\n        /* \"#utility.yul\":12589:12592   */\n      dup3\n        /* \"#utility.yul\":12585:12597   */\n      add\n        /* \"#utility.yul\":12578:12597   */\n      swap1\n      pop\n        /* \"#utility.yul\":12238:12603   */\n      swap2\n      swap1\n      pop\n      jump\t// out\n        /* \"#utility.yul\":12609:13028   */\n    tag_80:\n        /* \"#utility.yul\":12775:12779   */\n      0x00\n        /* \"#utility.yul\":12813:12815   */\n      0x20\n        /* \"#utility.yul\":12802:12811   */\n      dup3\n        /* \"#utility.yul\":12798:12816   */\n      add\n        /* \"#utility.yul\":12790:12816   */\n      swap1\n      pop\n        /* \"#utility.yul\":12862:12871   */\n      dup2\n        /* \"#utility.yul\":12856:12860   */\n      dup2\n        /* \"#utility.yul\":12852:12872   */\n      sub\n        /* \"#utility.yul\":12848:12849   */\n      0x00\n        /* \"#utility.yul\":12837:12846   */\n      dup4\n        /* \"#utility.yul\":12833:12850   */\n      add\n        /* \"#utility.yul\":12826:12873   */\n      mstore\n        /* \"#utility.yul\":12890:13021   */\n      tag_282\n        /* \"#utility.yul\":13016:13020   */\n      dup2\n        /* \"#utility.yul\":12890:13021   */\n      tag_142\n      jump\t// in\n    tag_282:\n        /* \"#utility.yul\":12882:13021   */\n      swap1\n      pop\n        /* \"#utility.yul\":12609:13028   */\n      swap2\n      swap1\n      pop\n      jump\t// out\n        /* \"#utility.yul\":13034:13214   */\n    tag_143:\n        /* \"#utility.yul\":13082:13159   */\n      0x4e487b7100000000000000000000000000000000000000000000000000000000\n        /* \"#utility.yul\":13079:13080   */\n      0x00\n        /* \"#utility.yul\":13072:13160   */\n      mstore\n        /* \"#utility.yul\":13179:13183   */\n      0x11\n        /* \"#utility.yul\":13176:13177   */\n      0x04\n        /* \"#utility.yul\":13169:13184   */\n      mstore\n        /* \"#utility.yul\":13203:13207   */\n      0x24\n        /* \"#utility.yul\":13200:13201   */\n      0x00\n        /* \"#utility.yul\":13193:13208   */\n      revert\n        /* \"#utility.yul\":13220:13453   */\n    tag_83:\n        /* \"#utility.yul\":13259:13262   */\n      0x00\n        /* \"#utility.yul\":13282:13306   */\n      tag_285\n        /* \"#utility.yul\":13300:13305   */\n      dup3\n        /* \"#utility.yul\":13282:13306   */\n      tag_110\n      jump\t// in\n    tag_285:\n        /* \"#utility.yul\":13273:13306   */\n      swap2\n      pop\n        /* \"#utility.yul\":13328:13394   */\n      0xffffffffffffffffffffffffffffffffffffffffffffffffffffffffffffffff\n        /* \"#utility.yul\":13321:13326   */\n      dup3\n        /* \"#utility.yul\":13318:13395   */\n      sub\n        /* \"#utility.yul\":13315:13418   */\n      tag_286\n      jumpi\n        /* \"#utility.yul\":13398:13416   */\n      tag_287\n      tag_143\n      jump\t// in\n    tag_287:\n        /* \"#utility.yul\":13315:13418   */\n    tag_286:\n        /* \"#utility.yul\":13445:13446   */\n      0x01\n        /* \"#utility.yul\":13438:13443   */\n      dup3\n        /* \"#utility.yul\":13434:13447   */\n      add\n        /* \"#utility.yul\":13427:13447   */\n      swap1\n      pop\n        /* \"#utility.yul\":13220:13453   */\n      swap2\n      swap1\n      pop\n      jump\t// out\n        /* \"#utility.yul\":13459:13636   */\n    tag_144:\n        /* \"#utility.yul\":13599:13628   */\n      0x75736572206973206e6f7420616c6c6f77656420746f2053656e640000000000\n        /* \"#utility.yul\":13595:13596   */\n      0x00\n        /* \"#utility.yul\":13587:13593   */\n      dup3\n        /* \"#utility.yul\":13583:13597   */\n      add\n        /* \"#utility.yul\":13576:13629   */\n      mstore\n        /* \"#utility.yul\":13459:13636   */\n      pop\n      jump\t// out\n        /* \"#utility.yul\":13642:14008   */\n    tag_145:\n        /* \"#utility.yul\":13784:13787   */\n      0x00\n        /* \"#utility.yul\":13805:13872   */\n      tag_290\n        /* \"#utility.yul\":13869:13871   */\n      0x1b\n        /* \"#utility.yul\":13864:13867   */\n      dup4\n        /* \"#utility.yul\":13805:13872   */\n      tag_134\n      jump\t// in\n    tag_290:\n        /* \"#utility.yul\":13798:13872   */\n      swap2\n      pop\n        /* \"#utility.yul\":13881:13974   */\n      tag_291\n        /* \"#utility.yul\":13970:13973   */\n      dup3\n        /* \"#utility.yul\":13881:13974   */\n      tag_144\n      jump\t// in\n    tag_291:\n        /* \"#utility.yul\":13999:14001   */\n      0x20\n        /* \"#utility.yul\":13994:13997   */\n      dup3\n        /* \"#utility.yul\":13990:14002   */\n      add\n        /* \"#utility.yul\":13983:14002   */\n      swap1\n      pop\n        /* \"#utility.yul\":13642:14008   */\n      swap2\n      swap1\n      pop\n      jump\t// out\n        /* \"#utility.yul\":14014:14433   */\n    tag_89:\n        /* \"#utility.yul\":14180:14184   */\n      0x00\n        /* \"#utility.yul\":14218:14220   */\n      0x20\n        /* \"#utility.yul\":14207:14216   */\n      dup3\n        /* \"#utility.yul\":14203:14221   */\n      add\n        /* \"#utility.yul\":14195:14221   */\n      swap1\n      pop\n        /* \"#utility.yul\":14267:14276   */\n      dup2\n        /* \"#utility.yul\":14261:14265   */\n      dup2\n        /* \"#utility.yul\":14257:14277   */\n      sub\n        /* \"#utility.yul\":14253:14254   */\n      0x00\n        /* \"#utility.yul\":14242:14251   */\n      dup4\n        /* \"#utility.yul\":14238:14255   */\n      add\n        /* \"#utility.yul\":14231:14278   */\n      mstore\n        /* \"#utility.yul\":14295:14426   */\n      tag_293\n        /* \"#utility.yul\":14421:14425   */\n      dup2\n        /* \"#utility.yul\":14295:14426   */\n      tag_145\n      jump\t// in\n    tag_293:\n        /* \"#utility.yul\":14287:14426   */\n      swap1\n      pop\n        /* \"#utility.yul\":14014:14433   */\n      swap2\n      swap1\n      pop\n      jump\t// out\n        /* \"#utility.yul\":14439:14665   */\n    tag_146:\n        /* \"#utility.yul\":14579:14613   */\n      0x496e73756666696369656e7420616d6f756e7420617661696c61626c652c2061\n        /* \"#utility.yul\":14575:14576   */\n      0x00\n        /* \"#utility.yul\":14567:14573   */\n      dup3\n        /* \"#utility.yul\":14563:14577   */\n      add\n        /* \"#utility.yul\":14556:14614   */\n      mstore\n        /* \"#utility.yul\":14648:14657   */\n      0x62757274696e6700000000000000000000000000000000000000000000000000\n        /* \"#utility.yul\":14643:14645   */\n      0x20\n        /* \"#utility.yul\":14635:14641   */\n      dup3\n        /* \"#utility.yul\":14631:14646   */\n      add\n        /* \"#utility.yul\":14624:14658   */\n      mstore\n        /* \"#utility.yul\":14439:14665   */\n      pop\n      jump\t// out\n        /* \"#utility.yul\":14671:15037   */\n    tag_147:\n        /* \"#utility.yul\":14813:14816   */\n      0x00\n        /* \"#utility.yul\":14834:14901   */\n      tag_296\n        /* \"#utility.yul\":14898:14900   */\n      0x27\n        /* \"#utility.yul\":14893:14896   */\n      dup4\n        /* \"#utility.yul\":14834:14901   */\n      tag_134\n      jump\t// in\n    tag_296:\n        /* \"#utility.yul\":14827:14901   */\n      swap2\n      pop\n        /* \"#utility.yul\":14910:15003   */\n      tag_297\n        /* \"#utility.yul\":14999:15002   */\n      dup3\n        /* \"#utility.yul\":14910:15003   */\n      tag_146\n      jump\t// in\n    tag_297:\n        /* \"#utility.yul\":15028:15030   */\n      0x40\n        /* \"#utility.yul\":15023:15026   */\n      dup3\n        /* \"#utility.yul\":15019:15031   */\n      add\n        /* \"#utility.yul\":15012:15031   */\n      swap1\n      pop\n        /* \"#utility.yul\":14671:15037   */\n      swap2\n      swap1\n      pop\n      jump\t// out\n        /* \"#utility.yul\":15043:15462   */\n    tag_92:\n        /* \"#utility.yul\":15209:15213   */\n      0x00\n        /* \"#utility.yul\":15247:15249   */\n      0x20\n        /* \"#utility.yul\":15236:15245   */\n      dup3\n        /* \"#utility.yul\":15232:15250   */\n      add\n        /* \"#utility.yul\":15224:15250   */\n      swap1\n      pop\n        /* \"#utility.yul\":15296:15305   */\n      dup2\n        /* \"#utility.yul\":15290:15294   */\n      dup2\n        /* \"#utility.yul\":15286:15306   */\n      sub\n        /* \"#utility.yul\":15282:15283   */\n      0x00\n        /* \"#utility.yul\":15271:15280   */\n      dup4\n        /* \"#utility.yul\":15267:15284   */\n      add\n        /* \"#utility.yul\":15260:15307   */\n      mstore\n        /* \"#utility.yul\":15324:15455   */\n      tag_299\n        /* \"#utility.yul\":15450:15454   */\n      dup2\n        /* \"#utility.yul\":15324:15455   */\n      tag_147\n      jump\t// in\n    tag_299:\n        /* \"#utility.yul\":15316:15455   */\n      swap1\n      pop\n        /* \"#utility.yul\":15043:15462   */\n      swap2\n      swap1\n      pop\n      jump\t// out\n        /* \"#utility.yul\":15468:15662   */\n    tag_94:\n        /* \"#utility.yul\":15508:15512   */\n      0x00\n        /* \"#utility.yul\":15528:15548   */\n      tag_301\n        /* \"#utility.yul\":15546:15547   */\n      dup3\n        /* \"#utility.yul\":15528:15548   */\n      tag_110\n      jump\t// in\n    tag_301:\n        /* \"#utility.yul\":15523:15548   */\n      swap2\n      pop\n        /* \"#utility.yul\":15562:15582   */\n      tag_302\n        /* \"#utility.yul\":15580:15581   */\n      dup4\n        /* \"#utility.yul\":15562:15582   */\n      tag_110\n      jump\t// in\n    tag_302:\n        /* \"#utility.yul\":15557:15582   */\n      swap3\n      pop\n        /* \"#utility.yul\":15606:15607   */\n      dup3\n        /* \"#utility.yul\":15603:15604   */\n      dup3\n        /* \"#utility.yul\":15599:15608   */\n      sub\n        /* \"#utility.yul\":15591:15608   */\n      swap1\n      pop\n        /* \"#utility.yul\":15630:15631   */\n      dup2\n        /* \"#utility.yul\":15624:15628   */\n      dup2\n        /* \"#utility.yul\":15621:15632   */\n      gt\n        /* \"#utility.yul\":15618:15655   */\n      iszero\n      tag_303\n      jumpi\n        /* \"#utility.yul\":15635:15653   */\n      tag_304\n      tag_143\n      jump\t// in\n    tag_304:\n        /* \"#utility.yul\":15618:15655   */\n    tag_303:\n        /* \"#utility.yul\":15468:15662   */\n      swap3\n      swap2\n      pop\n      pop\n      jump\t// out\n        /* \"#utility.yul\":15668:15815   */\n    tag_148:\n        /* \"#utility.yul\":15769:15780   */\n      0x00\n        /* \"#utility.yul\":15806:15809   */\n      dup2\n        /* \"#utility.yul\":15791:15809   */\n      swap1\n      pop\n        /* \"#utility.yul\":15668:15815   */\n      swap3\n      swap2\n      pop\n      pop\n      jump\t// out\n        /* \"#utility.yul\":15821:16207   */\n    tag_149:\n        /* \"#utility.yul\":15925:15928   */\n      0x00\n        /* \"#utility.yul\":15953:15991   */\n      tag_307\n        /* \"#utility.yul\":15985:15990   */\n      dup3\n        /* \"#utility.yul\":15953:15991   */\n      tag_130\n      jump\t// in\n    tag_307:\n        /* \"#utility.yul\":16007:16095   */\n      tag_308\n        /* \"#utility.yul\":16088:16094   */\n      dup2\n        /* \"#utility.yul\":16083:16086   */\n      dup6\n        /* \"#utility.yul\":16007:16095   */\n      tag_148\n      jump\t// in\n    tag_308:\n        /* \"#utility.yul\":16000:16095   */\n      swap4\n      pop\n        /* \"#utility.yul\":16104:16169   */\n      tag_309\n        /* \"#utility.yul\":16162:16168   */\n      dup2\n        /* \"#utility.yul\":16157:16160   */\n      dup6\n        /* \"#utility.yul\":16150:16154   */\n      0x20\n        /* \"#utility.yul\":16143:16148   */\n      dup7\n        /* \"#utility.yul\":16139:16155   */\n      add\n        /* \"#utility.yul\":16104:16169   */\n      tag_132\n      jump\t// in\n    tag_309:\n        /* \"#utility.yul\":16194:16200   */\n      dup1\n        /* \"#utility.yul\":16189:16192   */\n      dup5\n        /* \"#utility.yul\":16185:16201   */\n      add\n        /* \"#utility.yul\":16178:16201   */\n      swap2\n      pop\n        /* \"#utility.yul\":15929:16207   */\n      pop\n        /* \"#utility.yul\":15821:16207   */\n      swap3\n      swap2\n      pop\n      pop\n      jump\t// out\n        /* \"#utility.yul\":16213:16484   */\n    tag_96:\n        /* \"#utility.yul\":16343:16346   */\n      0x00\n        /* \"#utility.yul\":16365:16458   */\n      tag_311\n        /* \"#utility.yul\":16454:16457   */\n      dup3\n        /* \"#utility.yul\":16445:16451   */\n      dup5\n        /* \"#utility.yul\":16365:16458   */\n      tag_149\n      jump\t// in\n    tag_311:\n        /* \"#utility.yul\":16358:16458   */\n      swap2\n      pop\n        /* \"#utility.yul\":16475:16478   */\n      dup2\n        /* \"#utility.yul\":16468:16478   */\n      swap1\n      pop\n        /* \"#utility.yul\":16213:16484   */\n      swap3\n      swap2\n      pop\n      pop\n      jump\t// out\n\n    auxdata: 0xa2646970667358221220df9cbbff62f745f7a2c597003757302e796eedaccb6b38572117009ca576704d64736f6c63430008120033\n}\n",
				"bytecode": {
					"linkReferences": {},
					"object": "608060405234801561001057600080fd5b50336000806101000a81548173ffffffffffffffffffffffffffffffffffffffff021916908373ffffffffffffffffffffffffffffffffffffffff16021790555061131e806100606000396000f3fe60806040526004361061008a5760003560e01c8063a364c09f11610059578063a364c09f14610164578063b1f8100d1461018d578063be45fd62146101b6578063d004c57d146101f3578063dead82af1461021e57610091565b80630bc605ad14610096578063139c7b5d146100d35780632b603c71146100fc5780638da5cb5b1461013957610091565b3661009157005b600080fd5b3480156100a257600080fd5b506100bd60048036038101906100b89190610ad1565b61025b565b6040516100ca9190610b19565b60405180910390f35b3480156100df57600080fd5b506100fa60048036038101906100f59190610b6a565b61027b565b005b34801561010857600080fd5b50610123600480360381019061011e9190610ad1565b610410565b6040516101309190610bb9565b60405180910390f35b34801561014557600080fd5b5061014e610428565b60405161015b9190610bf5565b60405180910390f35b34801561017057600080fd5b5061018b60048036038101906101869190610c3c565b61044c565b005b34801561019957600080fd5b506101b460048036038101906101af9190610ca8565b610535565b005b3480156101c257600080fd5b506101dd60048036038101906101d89190610e1b565b6107fa565b6040516101ea9190610f09565b60405180910390f35b3480156101ff57600080fd5b50610208610a3a565b6040516102159190610bb9565b60405180910390f35b34801561022a57600080fd5b5061024560048036038101906102409190610ad1565b610a3f565b6040516102529190610b19565b60405180910390f35b60056020528060005260406000206000915054906101000a900460ff1681565b60008054906101000a900473ffffffffffffffffffffffffffffffffffffffff1673ffffffffffffffffffffffffffffffffffffffff163373ffffffffffffffffffffffffffffffffffffffff1614610309576040517f08c379a000000000000000000000000000000000000000000000000000000000815260040161030090610f88565b60405180910390fd5b80600260008473ffffffffffffffffffffffffffffffffffffffff1673ffffffffffffffffffffffffffffffffffffffff1681526020019081526020016000208190555060008111156103b3576001600560008473ffffffffffffffffffffffffffffffffffffffff1673ffffffffffffffffffffffffffffffffffffffff16815260200190815260200160002060006101000a81548160ff02191690831515021790555061040c565b6000600560008473ffffffffffffffffffffffffffffffffffffffff1673ffffffffffffffffffffffffffffffffffffffff16815260200190815260200160002060006101000a81548160ff0219169083151502179055505b5050565b60026020528060005260406000206000915090505481565b60008054906101000a900473ffffffffffffffffffffffffffffffffffffffff1681565b60008054906101000a900473ffffffffffffffffffffffffffffffffffffffff1673ffffffffffffffffffffffffffffffffffffffff163373ffffffffffffffffffffffffffffffffffffffff16146104da576040517f08c379a00000000000000000000000000000000000000000000000000000000081526004016104d190610ff4565b60405180910390fd5b80600460008473ffffffffffffffffffffffffffffffffffffffff1673ffffffffffffffffffffffffffffffffffffffff16815260200190815260200160002060006101000a81548160ff0219169083151502179055505050565b600460003373ffffffffffffffffffffffffffffffffffffffff1673ffffffffffffffffffffffffffffffffffffffff16815260200190815260200160002060009054906101000a900460ff166105c1576040517f08c379a00000000000000000000000000000000000000000000000000000000081526004016105b890611060565b60405180910390fd5b60001515600360008373ffffffffffffffffffffffffffffffffffffffff1673ffffffffffffffffffffffffffffffffffffffff16815260200190815260200160002060003373ffffffffffffffffffffffffffffffffffffffff1673ffffffffffffffffffffffffffffffffffffffff16815260200190815260200160002060009054906101000a900460ff16151514610691576040517f08c379a0000000000000000000000000000000000000000000000000000000008152600401610688906110cc565b60405180910390fd5b600160009054906101000a900473ffffffffffffffffffffffffffffffffffffffff1673ffffffffffffffffffffffffffffffffffffffff168173ffffffffffffffffffffffffffffffffffffffff16146107305780600160006101000a81548173ffffffffffffffffffffffffffffffffffffffff021916908373ffffffffffffffffffffffffffffffffffffffff16021790555060006006819055505b600660008154809291906107439061111b565b91905055506003600654106107f757600160009054906101000a900473ffffffffffffffffffffffffffffffffffffffff166000806101000a81548173ffffffffffffffffffffffffffffffffffffffff021916908373ffffffffffffffffffffffffffffffffffffffff1602179055506000600160006101000a81548173ffffffffffffffffffffffffffffffffffffffff021916908373ffffffffffffffffffffffffffffffffffffffff1602179055505b50565b606060008054906101000a900473ffffffffffffffffffffffffffffffffffffffff1673ffffffffffffffffffffffffffffffffffffffff163373ffffffffffffffffffffffffffffffffffffffff16146109b457600560003373ffffffffffffffffffffffffffffffffffffffff1673ffffffffffffffffffffffffffffffffffffffff16815260200190815260200160002060009054906101000a900460ff166108db576040517f08c379a00000000000000000000000000000000000000000000000000000000081526004016108d2906111af565b60405180910390fd5b82600260003373ffffffffffffffffffffffffffffffffffffffff1673ffffffffffffffffffffffffffffffffffffffff16815260200190815260200160002054101561095d576040517f08c379a000000000000000000000000000000000000000000000000000000000815260040161095490611241565b60405180910390fd5b82600260003373ffffffffffffffffffffffffffffffffffffffff1673ffffffffffffffffffffffffffffffffffffffff16815260200190815260200160002060008282546109ac9190611261565b925050819055505b6000808573ffffffffffffffffffffffffffffffffffffffff1685856040516109dd91906112d1565b60006040518083038185875af1925050503d8060008114610a1a576040519150601f19603f3d011682016040523d82523d6000602084013e610a1f565b606091505b509150915081610a2e57600080fd5b80925050509392505050565b600381565b60046020528060005260406000206000915054906101000a900460ff1681565b6000604051905090565b600080fd5b600080fd5b600073ffffffffffffffffffffffffffffffffffffffff82169050919050565b6000610a9e82610a73565b9050919050565b610aae81610a93565b8114610ab957600080fd5b50565b600081359050610acb81610aa5565b92915050565b600060208284031215610ae757610ae6610a69565b5b6000610af584828501610abc565b91505092915050565b60008115159050919050565b610b1381610afe565b82525050565b6000602082019050610b2e6000830184610b0a565b92915050565b6000819050919050565b610b4781610b34565b8114610b5257600080fd5b50565b600081359050610b6481610b3e565b92915050565b60008060408385031215610b8157610b80610a69565b5b6000610b8f85828601610abc565b9250506020610ba085828601610b55565b9150509250929050565b610bb381610b34565b82525050565b6000602082019050610bce6000830184610baa565b92915050565b6000610bdf82610a73565b9050919050565b610bef81610bd4565b82525050565b6000602082019050610c0a6000830184610be6565b92915050565b610c1981610afe565b8114610c2457600080fd5b50565b600081359050610c3681610c10565b92915050565b60008060408385031215610c5357610c52610a69565b5b6000610c6185828601610abc565b9250506020610c7285828601610c27565b9150509250929050565b610c8581610bd4565b8114610c9057600080fd5b50565b600081359050610ca281610c7c565b92915050565b600060208284031215610cbe57610cbd610a69565b5b6000610ccc84828501610c93565b91505092915050565b600080fd5b600080fd5b6000601f19601f8301169050919050565b7f4e487b7100000000000000000000000000000000000000000000000000000000600052604160045260246000fd5b610d2882610cdf565b810181811067ffffffffffffffff82111715610d4757610d46610cf0565b5b80604052505050565b6000610d5a610a5f565b9050610d668282610d1f565b919050565b600067ffffffffffffffff821115610d8657610d85610cf0565b5b610d8f82610cdf565b9050602081019050919050565b82818337600083830152505050565b6000610dbe610db984610d6b565b610d50565b905082815260208101848484011115610dda57610dd9610cda565b5b610de5848285610d9c565b509392505050565b600082601f830112610e0257610e01610cd5565b5b8135610e12848260208601610dab565b91505092915050565b600080600060608486031215610e3457610e33610a69565b5b6000610e4286828701610c93565b9350506020610e5386828701610b55565b925050604084013567ffffffffffffffff811115610e7457610e73610a6e565b5b610e8086828701610ded565b9150509250925092565b600081519050919050565b600082825260208201905092915050565b60005b83811015610ec4578082015181840152602081019050610ea9565b60008484015250505050565b6000610edb82610e8a565b610ee58185610e95565b9350610ef5818560208601610ea6565b610efe81610cdf565b840191505092915050565b60006020820190508181036000830152610f238184610ed0565b905092915050565b600082825260208201905092915050565b7f796f7520617265206e6f7420746865206f776e65722061626f7274696e670000600082015250565b6000610f72601e83610f2b565b9150610f7d82610f3c565b602082019050919050565b60006020820190508181036000830152610fa181610f65565b9050919050565b7f796f7520617265206e6f7420746865206f776e65722c2061626f7274696e6700600082015250565b6000610fde601f83610f2b565b9150610fe982610fa8565b602082019050919050565b6000602082019050818103600083015261100d81610fd1565b9050919050565b7f596f7520617265206e6f7420746865206761756469616e000000000000000000600082015250565b600061104a601783610f2b565b915061105582611014565b602082019050919050565b600060208201905081810360008301526110798161103d565b9050919050565b7f41626f7274696e67000000000000000000000000000000000000000000000000600082015250565b60006110b6600883610f2b565b91506110c182611080565b602082019050919050565b600060208201905081810360008301526110e5816110a9565b9050919050565b7f4e487b7100000000000000000000000000000000000000000000000000000000600052601160045260246000fd5b600061112682610b34565b91507fffffffffffffffffffffffffffffffffffffffffffffffffffffffffffffffff8203611158576111576110ec565b5b600182019050919050565b7f75736572206973206e6f7420616c6c6f77656420746f2053656e640000000000600082015250565b6000611199601b83610f2b565b91506111a482611163565b602082019050919050565b600060208201905081810360008301526111c88161118c565b9050919050565b7f496e73756666696369656e7420616d6f756e7420617661696c61626c652c206160008201527f62757274696e6700000000000000000000000000000000000000000000000000602082015250565b600061122b602783610f2b565b9150611236826111cf565b604082019050919050565b6000602082019050818103600083015261125a8161121e565b9050919050565b600061126c82610b34565b915061127783610b34565b925082820390508181111561128f5761128e6110ec565b5b92915050565b600081905092915050565b60006112ab82610e8a565b6112b58185611295565b93506112c5818560208601610ea6565b80840191505092915050565b60006112dd82846112a0565b91508190509291505056fea2646970667358221220df9cbbff62f745f7a2c597003757302e796eedaccb6b38572117009ca576704d64736f6c63430008120033",
					"opcodes": "PUSH1 0x80 PUSH1 0x40 MSTORE CALLVALUE DUP1 ISZERO PUSH2 0x10 JUMPI PUSH1 0x0 DUP1 REVERT JUMPDEST POP CALLER PUSH1 0x0 DUP1 PUSH2 0x100 EXP DUP2 SLOAD DUP2 PUSH20 0xFFFFFFFFFFFFFFFFFFFFFFFFFFFFFFFFFFFFFFFF MUL NOT AND SWAP1 DUP4 PUSH20 0xFFFFFFFFFFFFFFFFFFFFFFFFFFFFFFFFFFFFFFFF AND MUL OR SWAP1 SSTORE POP PUSH2 0x131E DUP1 PUSH2 0x60 PUSH1 0x0 CODECOPY PUSH1 0x0 RETURN INVALID PUSH1 0x80 PUSH1 0x40 MSTORE PUSH1 0x4 CALLDATASIZE LT PUSH2 0x8A JUMPI PUSH1 0x0 CALLDATALOAD PUSH1 0xE0 SHR DUP1 PUSH4 0xA364C09F GT PUSH2 0x59 JUMPI DUP1 PUSH4 0xA364C09F EQ PUSH2 0x164 JUMPI DUP1 PUSH4 0xB1F8100D EQ PUSH2 0x18D JUMPI DUP1 PUSH4 0xBE45FD62 EQ PUSH2 0x1B6 JUMPI DUP1 PUSH4 0xD004C57D EQ PUSH2 0x1F3 JUMPI DUP1 PUSH4 0xDEAD82AF EQ PUSH2 0x21E JUMPI PUSH2 0x91 JUMP JUMPDEST DUP1 PUSH4 0xBC605AD EQ PUSH2 0x96 JUMPI DUP1 PUSH4 0x139C7B5D EQ PUSH2 0xD3 JUMPI DUP1 PUSH4 0x2B603C71 EQ PUSH2 0xFC JUMPI DUP1 PUSH4 0x8DA5CB5B EQ PUSH2 0x139 JUMPI PUSH2 0x91 JUMP JUMPDEST CALLDATASIZE PUSH2 0x91 JUMPI STOP JUMPDEST PUSH1 0x0 DUP1 REVERT JUMPDEST CALLVALUE DUP1 ISZERO PUSH2 0xA2 JUMPI PUSH1 0x0 DUP1 REVERT JUMPDEST POP PUSH2 0xBD PUSH1 0x4 DUP1 CALLDATASIZE SUB DUP2 ADD SWAP1 PUSH2 0xB8 SWAP2 SWAP1 PUSH2 0xAD1 JUMP JUMPDEST PUSH2 0x25B JUMP JUMPDEST PUSH1 0x40 MLOAD PUSH2 0xCA SWAP2 SWAP1 PUSH2 0xB19 JUMP JUMPDEST PUSH1 0x40 MLOAD DUP1 SWAP2 SUB SWAP1 RETURN JUMPDEST CALLVALUE DUP1 ISZERO PUSH2 0xDF JUMPI PUSH1 0x0 DUP1 REVERT JUMPDEST POP PUSH2 0xFA PUSH1 0x4 DUP1 CALLDATASIZE SUB DUP2 ADD SWAP1 PUSH2 0xF5 SWAP2 SWAP1 PUSH2 0xB6A JUMP JUMPDEST PUSH2 0x27B JUMP JUMPDEST STOP JUMPDEST CALLVALUE DUP1 ISZERO PUSH2 0x108 JUMPI PUSH1 0x0 DUP1 REVERT JUMPDEST POP PUSH2 0x123 PUSH1 0x4 DUP1 CALLDATASIZE SUB DUP2 ADD SWAP1 PUSH2 0x11E SWAP2 SWAP1 PUSH2 0xAD1 JUMP JUMPDEST PUSH2 0x410 JUMP JUMPDEST PUSH1 0x40 MLOAD PUSH2 0x130 SWAP2 SWAP1 PUSH2 0xBB9 JUMP JUMPDEST PUSH1 0x40 MLOAD DUP1 SWAP2 SUB SWAP1 RETURN JUMPDEST CALLVALUE DUP1 ISZERO PUSH2 0x145 JUMPI PUSH1 0x0 DUP1 REVERT JUMPDEST POP PUSH2 0x14E PUSH2 0x428 JUMP JUMPDEST PUSH1 0x40 MLOAD PUSH2 0x15B SWAP2 SWAP1 PUSH2 0xBF5 JUMP JUMPDEST PUSH1 0x40 MLOAD DUP1 SWAP2 SUB SWAP1 RETURN JUMPDEST CALLVALUE DUP1 ISZERO PUSH2 0x170 JUMPI PUSH1 0x0 DUP1 REVERT JUMPDEST POP PUSH2 0x18B PUSH1 0x4 DUP1 CALLDATASIZE SUB DUP2 ADD SWAP1 PUSH2 0x186 SWAP2 SWAP1 PUSH2 0xC3C JUMP JUMPDEST PUSH2 0x44C JUMP JUMPDEST STOP JUMPDEST CALLVALUE DUP1 ISZERO PUSH2 0x199 JUMPI PUSH1 0x0 DUP1 REVERT JUMPDEST POP PUSH2 0x1B4 PUSH1 0x4 DUP1 CALLDATASIZE SUB DUP2 ADD SWAP1 PUSH2 0x1AF SWAP2 SWAP1 PUSH2 0xCA8 JUMP JUMPDEST PUSH2 0x535 JUMP JUMPDEST STOP JUMPDEST CALLVALUE DUP1 ISZERO PUSH2 0x1C2 JUMPI PUSH1 0x0 DUP1 REVERT JUMPDEST POP PUSH2 0x1DD PUSH1 0x4 DUP1 CALLDATASIZE SUB DUP2 ADD SWAP1 PUSH2 0x1D8 SWAP2 SWAP1 PUSH2 0xE1B JUMP JUMPDEST PUSH2 0x7FA JUMP JUMPDEST PUSH1 0x40 MLOAD PUSH2 0x1EA SWAP2 SWAP1 PUSH2 0xF09 JUMP JUMPDEST PUSH1 0x40 MLOAD DUP1 SWAP2 SUB SWAP1 RETURN JUMPDEST CALLVALUE DUP1 ISZERO PUSH2 0x1FF JUMPI PUSH1 0x0 DUP1 REVERT JUMPDEST POP PUSH2 0x208 PUSH2 0xA3A JUMP JUMPDEST PUSH1 0x40 MLOAD PUSH2 0x215 SWAP2 SWAP1 PUSH2 0xBB9 JUMP JUMPDEST PUSH1 0x40 MLOAD DUP1 SWAP2 SUB SWAP1 RETURN JUMPDEST CALLVALUE DUP1 ISZERO PUSH2 0x22A JUMPI PUSH1 0x0 DUP1 REVERT JUMPDEST POP PUSH2 0x245 PUSH1 0x4 DUP1 CALLDATASIZE SUB DUP2 ADD SWAP1 PUSH2 0x240 SWAP2 SWAP1 PUSH2 0xAD1 JUMP JUMPDEST PUSH2 0xA3F JUMP JUMPDEST PUSH1 0x40 MLOAD PUSH2 0x252 SWAP2 SWAP1 PUSH2 0xB19 JUMP JUMPDEST PUSH1 0x40 MLOAD DUP1 SWAP2 SUB SWAP1 RETURN JUMPDEST PUSH1 0x5 PUSH1 0x20 MSTORE DUP1 PUSH1 0x0 MSTORE PUSH1 0x40 PUSH1 0x0 KECCAK256 PUSH1 0x0 SWAP2 POP SLOAD SWAP1 PUSH2 0x100 EXP SWAP1 DIV PUSH1 0xFF AND DUP2 JUMP JUMPDEST PUSH1 0x0 DUP1 SLOAD SWAP1 PUSH2 0x100 EXP SWAP1 DIV PUSH20 0xFFFFFFFFFFFFFFFFFFFFFFFFFFFFFFFFFFFFFFFF AND PUSH20 0xFFFFFFFFFFFFFFFFFFFFFFFFFFFFFFFFFFFFFFFF AND CALLER PUSH20 0xFFFFFFFFFFFFFFFFFFFFFFFFFFFFFFFFFFFFFFFF AND EQ PUSH2 0x309 JUMPI PUSH1 0x40 MLOAD PUSH32 0x8C379A000000000000000000000000000000000000000000000000000000000 DUP2 MSTORE PUSH1 0x4 ADD PUSH2 0x300 SWAP1 PUSH2 0xF88 JUMP JUMPDEST PUSH1 0x40 MLOAD DUP1 SWAP2 SUB SWAP1 REVERT JUMPDEST DUP1 PUSH1 0x2 PUSH1 0x0 DUP5 PUSH20 0xFFFFFFFFFFFFFFFFFFFFFFFFFFFFFFFFFFFFFFFF AND PUSH20 0xFFFFFFFFFFFFFFFFFFFFFFFFFFFFFFFFFFFFFFFF AND DUP2 MSTORE PUSH1 0x20 ADD SWAP1 DUP2 MSTORE PUSH1 0x20 ADD PUSH1 0x0 KECCAK256 DUP2 SWAP1 SSTORE POP PUSH1 0x0 DUP2 GT ISZERO PUSH2 0x3B3 JUMPI PUSH1 0x1 PUSH1 0x5 PUSH1 0x0 DUP5 PUSH20 0xFFFFFFFFFFFFFFFFFFFFFFFFFFFFFFFFFFFFFFFF AND PUSH20 0xFFFFFFFFFFFFFFFFFFFFFFFFFFFFFFFFFFFFFFFF AND DUP2 MSTORE PUSH1 0x20 ADD SWAP1 DUP2 MSTORE PUSH1 0x20 ADD PUSH1 0x0 KECCAK256 PUSH1 0x0 PUSH2 0x100 EXP DUP2 SLOAD DUP2 PUSH1 0xFF MUL NOT AND SWAP1 DUP4 ISZERO ISZERO MUL OR SWAP1 SSTORE POP PUSH2 0x40C JUMP JUMPDEST PUSH1 0x0 PUSH1 0x5 PUSH1 0x0 DUP5 PUSH20 0xFFFFFFFFFFFFFFFFFFFFFFFFFFFFFFFFFFFFFFFF AND PUSH20 0xFFFFFFFFFFFFFFFFFFFFFFFFFFFFFFFFFFFFFFFF AND DUP2 MSTORE PUSH1 0x20 ADD SWAP1 DUP2 MSTORE PUSH1 0x20 ADD PUSH1 0x0 KECCAK256 PUSH1 0x0 PUSH2 0x100 EXP DUP2 SLOAD DUP2 PUSH1 0xFF MUL NOT AND SWAP1 DUP4 ISZERO ISZERO MUL OR SWAP1 SSTORE POP JUMPDEST POP POP JUMP JUMPDEST PUSH1 0x2 PUSH1 0x20 MSTORE DUP1 PUSH1 0x0 MSTORE PUSH1 0x40 PUSH1 0x0 KECCAK256 PUSH1 0x0 SWAP2 POP SWAP1 POP SLOAD DUP2 JUMP JUMPDEST PUSH1 0x0 DUP1 SLOAD SWAP1 PUSH2 0x100 EXP SWAP1 DIV PUSH20 0xFFFFFFFFFFFFFFFFFFFFFFFFFFFFFFFFFFFFFFFF AND DUP2 JUMP JUMPDEST PUSH1 0x0 DUP1 SLOAD SWAP1 PUSH2 0x100 EXP SWAP1 DIV PUSH20 0xFFFFFFFFFFFFFFFFFFFFFFFFFFFFFFFFFFFFFFFF AND PUSH20 0xFFFFFFFFFFFFFFFFFFFFFFFFFFFFFFFFFFFFFFFF AND CALLER PUSH20 0xFFFFFFFFFFFFFFFFFFFFFFFFFFFFFFFFFFFFFFFF AND EQ PUSH2 0x4DA JUMPI PUSH1 0x40 MLOAD PUSH32 0x8C379A000000000000000000000000000000000000000000000000000000000 DUP2 MSTORE PUSH1 0x4 ADD PUSH2 0x4D1 SWAP1 PUSH2 0xFF4 JUMP JUMPDEST PUSH1 0x40 MLOAD DUP1 SWAP2 SUB SWAP1 REVERT JUMPDEST DUP1 PUSH1 0x4 PUSH1 0x0 DUP5 PUSH20 0xFFFFFFFFFFFFFFFFFFFFFFFFFFFFFFFFFFFFFFFF AND PUSH20 0xFFFFFFFFFFFFFFFFFFFFFFFFFFFFFFFFFFFFFFFF AND DUP2 MSTORE PUSH1 0x20 ADD SWAP1 DUP2 MSTORE PUSH1 0x20 ADD PUSH1 0x0 KECCAK256 PUSH1 0x0 PUSH2 0x100 EXP DUP2 SLOAD DUP2 PUSH1 0xFF MUL NOT AND SWAP1 DUP4 ISZERO ISZERO MUL OR SWAP1 SSTORE POP POP POP JUMP JUMPDEST PUSH1 0x4 PUSH1 0x0 CALLER PUSH20 0xFFFFFFFFFFFFFFFFFFFFFFFFFFFFFFFFFFFFFFFF AND PUSH20 0xFFFFFFFFFFFFFFFFFFFFFFFFFFFFFFFFFFFFFFFF AND DUP2 MSTORE PUSH1 0x20 ADD SWAP1 DUP2 MSTORE PUSH1 0x20 ADD PUSH1 0x0 KECCAK256 PUSH1 0x0 SWAP1 SLOAD SWAP1 PUSH2 0x100 EXP SWAP1 DIV PUSH1 0xFF AND PUSH2 0x5C1 JUMPI PUSH1 0x40 MLOAD PUSH32 0x8C379A000000000000000000000000000000000000000000000000000000000 DUP2 MSTORE PUSH1 0x4 ADD PUSH2 0x5B8 SWAP1 PUSH2 0x1060 JUMP JUMPDEST PUSH1 0x40 MLOAD DUP1 SWAP2 SUB SWAP1 REVERT JUMPDEST PUSH1 0x0 ISZERO ISZERO PUSH1 0x3 PUSH1 0x0 DUP4 PUSH20 0xFFFFFFFFFFFFFFFFFFFFFFFFFFFFFFFFFFFFFFFF AND PUSH20 0xFFFFFFFFFFFFFFFFFFFFFFFFFFFFFFFFFFFFFFFF AND DUP2 MSTORE PUSH1 0x20 ADD SWAP1 DUP2 MSTORE PUSH1 0x20 ADD PUSH1 0x0 KECCAK256 PUSH1 0x0 CALLER PUSH20 0xFFFFFFFFFFFFFFFFFFFFFFFFFFFFFFFFFFFFFFFF AND PUSH20 0xFFFFFFFFFFFFFFFFFFFFFFFFFFFFFFFFFFFFFFFF AND DUP2 MSTORE PUSH1 0x20 ADD SWAP1 DUP2 MSTORE PUSH1 0x20 ADD PUSH1 0x0 KECCAK256 PUSH1 0x0 SWAP1 SLOAD SWAP1 PUSH2 0x100 EXP SWAP1 DIV PUSH1 0xFF AND ISZERO ISZERO EQ PUSH2 0x691 JUMPI PUSH1 0x40 MLOAD PUSH32 0x8C379A000000000000000000000000000000000000000000000000000000000 DUP2 MSTORE PUSH1 0x4 ADD PUSH2 0x688 SWAP1 PUSH2 0x10CC JUMP JUMPDEST PUSH1 0x40 MLOAD DUP1 SWAP2 SUB SWAP1 REVERT JUMPDEST PUSH1 0x1 PUSH1 0x0 SWAP1 SLOAD SWAP1 PUSH2 0x100 EXP SWAP1 DIV PUSH20 0xFFFFFFFFFFFFFFFFFFFFFFFFFFFFFFFFFFFFFFFF AND PUSH20 0xFFFFFFFFFFFFFFFFFFFFFFFFFFFFFFFFFFFFFFFF AND DUP2 PUSH20 0xFFFFFFFFFFFFFFFFFFFFFFFFFFFFFFFFFFFFFFFF AND EQ PUSH2 0x730 JUMPI DUP1 PUSH1 0x1 PUSH1 0x0 PUSH2 0x100 EXP DUP2 SLOAD DUP2 PUSH20 0xFFFFFFFFFFFFFFFFFFFFFFFFFFFFFFFFFFFFFFFF MUL NOT AND SWAP1 DUP4 PUSH20 0xFFFFFFFFFFFFFFFFFFFFFFFFFFFFFFFFFFFFFFFF AND MUL OR SWAP1 SSTORE POP PUSH1 0x0 PUSH1 0x6 DUP2 SWAP1 SSTORE POP JUMPDEST PUSH1 0x6 PUSH1 0x0 DUP2 SLOAD DUP1 SWAP3 SWAP2 SWAP1 PUSH2 0x743 SWAP1 PUSH2 0x111B JUMP JUMPDEST SWAP2 SWAP1 POP SSTORE POP PUSH1 0x3 PUSH1 0x6 SLOAD LT PUSH2 0x7F7 JUMPI PUSH1 0x1 PUSH1 0x0 SWAP1 SLOAD SWAP1 PUSH2 0x100 EXP SWAP1 DIV PUSH20 0xFFFFFFFFFFFFFFFFFFFFFFFFFFFFFFFFFFFFFFFF AND PUSH1 0x0 DUP1 PUSH2 0x100 EXP DUP2 SLOAD DUP2 PUSH20 0xFFFFFFFFFFFFFFFFFFFFFFFFFFFFFFFFFFFFFFFF MUL NOT AND SWAP1 DUP4 PUSH20 0xFFFFFFFFFFFFFFFFFFFFFFFFFFFFFFFFFFFFFFFF AND MUL OR SWAP1 SSTORE POP PUSH1 0x0 PUSH1 0x1 PUSH1 0x0 PUSH2 0x100 EXP DUP2 SLOAD DUP2 PUSH20 0xFFFFFFFFFFFFFFFFFFFFFFFFFFFFFFFFFFFFFFFF MUL NOT AND SWAP1 DUP4 PUSH20 0xFFFFFFFFFFFFFFFFFFFFFFFFFFFFFFFFFFFFFFFF AND MUL OR SWAP1 SSTORE POP JUMPDEST POP JUMP JUMPDEST PUSH1 0x60 PUSH1 0x0 DUP1 SLOAD SWAP1 PUSH2 0x100 EXP SWAP1 DIV PUSH20 0xFFFFFFFFFFFFFFFFFFFFFFFFFFFFFFFFFFFFFFFF AND PUSH20 0xFFFFFFFFFFFFFFFFFFFFFFFFFFFFFFFFFFFFFFFF AND CALLER PUSH20 0xFFFFFFFFFFFFFFFFFFFFFFFFFFFFFFFFFFFFFFFF AND EQ PUSH2 0x9B4 JUMPI PUSH1 0x5 PUSH1 0x0 CALLER PUSH20 0xFFFFFFFFFFFFFFFFFFFFFFFFFFFFFFFFFFFFFFFF AND PUSH20 0xFFFFFFFFFFFFFFFFFFFFFFFFFFFFFFFFFFFFFFFF AND DUP2 MSTORE PUSH1 0x20 ADD SWAP1 DUP2 MSTORE PUSH1 0x20 ADD PUSH1 0x0 KECCAK256 PUSH1 0x0 SWAP1 SLOAD SWAP1 PUSH2 0x100 EXP SWAP1 DIV PUSH1 0xFF AND PUSH2 0x8DB JUMPI PUSH1 0x40 MLOAD PUSH32 0x8C379A000000000000000000000000000000000000000000000000000000000 DUP2 MSTORE PUSH1 0x4 ADD PUSH2 0x8D2 SWAP1 PUSH2 0x11AF JUMP JUMPDEST PUSH1 0x40 MLOAD DUP1 SWAP2 SUB SWAP1 REVERT JUMPDEST DUP3 PUSH1 0x2 PUSH1 0x0 CALLER PUSH20 0xFFFFFFFFFFFFFFFFFFFFFFFFFFFFFFFFFFFFFFFF AND PUSH20 0xFFFFFFFFFFFFFFFFFFFFFFFFFFFFFFFFFFFFFFFF AND DUP2 MSTORE PUSH1 0x20 ADD SWAP1 DUP2 MSTORE PUSH1 0x20 ADD PUSH1 0x0 KECCAK256 SLOAD LT ISZERO PUSH2 0x95D JUMPI PUSH1 0x40 MLOAD PUSH32 0x8C379A000000000000000000000000000000000000000000000000000000000 DUP2 MSTORE PUSH1 0x4 ADD PUSH2 0x954 SWAP1 PUSH2 0x1241 JUMP JUMPDEST PUSH1 0x40 MLOAD DUP1 SWAP2 SUB SWAP1 REVERT JUMPDEST DUP3 PUSH1 0x2 PUSH1 0x0 CALLER PUSH20 0xFFFFFFFFFFFFFFFFFFFFFFFFFFFFFFFFFFFFFFFF AND PUSH20 0xFFFFFFFFFFFFFFFFFFFFFFFFFFFFFFFFFFFFFFFF AND DUP2 MSTORE PUSH1 0x20 ADD SWAP1 DUP2 MSTORE PUSH1 0x20 ADD PUSH1 0x0 KECCAK256 PUSH1 0x0 DUP3 DUP3 SLOAD PUSH2 0x9AC SWAP2 SWAP1 PUSH2 0x1261 JUMP JUMPDEST SWAP3 POP POP DUP2 SWAP1 SSTORE POP JUMPDEST PUSH1 0x0 DUP1 DUP6 PUSH20 0xFFFFFFFFFFFFFFFFFFFFFFFFFFFFFFFFFFFFFFFF AND DUP6 DUP6 PUSH1 0x40 MLOAD PUSH2 0x9DD SWAP2 SWAP1 PUSH2 0x12D1 JUMP JUMPDEST PUSH1 0x0 PUSH1 0x40 MLOAD DUP1 DUP4 SUB DUP2 DUP6 DUP8 GAS CALL SWAP3 POP POP POP RETURNDATASIZE DUP1 PUSH1 0x0 DUP2 EQ PUSH2 0xA1A JUMPI PUSH1 0x40 MLOAD SWAP2 POP PUSH1 0x1F NOT PUSH1 0x3F RETURNDATASIZE ADD AND DUP3 ADD PUSH1 0x40 MSTORE RETURNDATASIZE DUP3 MSTORE RETURNDATASIZE PUSH1 0x0 PUSH1 0x20 DUP5 ADD RETURNDATACOPY PUSH2 0xA1F JUMP JUMPDEST PUSH1 0x60 SWAP2 POP JUMPDEST POP SWAP2 POP SWAP2 POP DUP2 PUSH2 0xA2E JUMPI PUSH1 0x0 DUP1 REVERT JUMPDEST DUP1 SWAP3 POP POP POP SWAP4 SWAP3 POP POP POP JUMP JUMPDEST PUSH1 0x3 DUP2 JUMP JUMPDEST PUSH1 0x4 PUSH1 0x20 MSTORE DUP1 PUSH1 0x0 MSTORE PUSH1 0x40 PUSH1 0x0 KECCAK256 PUSH1 0x0 SWAP2 POP SLOAD SWAP1 PUSH2 0x100 EXP SWAP1 DIV PUSH1 0xFF AND DUP2 JUMP JUMPDEST PUSH1 0x0 PUSH1 0x40 MLOAD SWAP1 POP SWAP1 JUMP JUMPDEST PUSH1 0x0 DUP1 REVERT JUMPDEST PUSH1 0x0 DUP1 REVERT JUMPDEST PUSH1 0x0 PUSH20 0xFFFFFFFFFFFFFFFFFFFFFFFFFFFFFFFFFFFFFFFF DUP3 AND SWAP1 POP SWAP2 SWAP1 POP JUMP JUMPDEST PUSH1 0x0 PUSH2 0xA9E DUP3 PUSH2 0xA73 JUMP JUMPDEST SWAP1 POP SWAP2 SWAP1 POP JUMP JUMPDEST PUSH2 0xAAE DUP2 PUSH2 0xA93 JUMP JUMPDEST DUP2 EQ PUSH2 0xAB9 JUMPI PUSH1 0x0 DUP1 REVERT JUMPDEST POP JUMP JUMPDEST PUSH1 0x0 DUP2 CALLDATALOAD SWAP1 POP PUSH2 0xACB DUP2 PUSH2 0xAA5 JUMP JUMPDEST SWAP3 SWAP2 POP POP JUMP JUMPDEST PUSH1 0x0 PUSH1 0x20 DUP3 DUP5 SUB SLT ISZERO PUSH2 0xAE7 JUMPI PUSH2 0xAE6 PUSH2 0xA69 JUMP JUMPDEST JUMPDEST PUSH1 0x0 PUSH2 0xAF5 DUP5 DUP3 DUP6 ADD PUSH2 0xABC JUMP JUMPDEST SWAP2 POP POP SWAP3 SWAP2 POP POP JUMP JUMPDEST PUSH1 0x0 DUP2 ISZERO ISZERO SWAP1 POP SWAP2 SWAP1 POP JUMP JUMPDEST PUSH2 0xB13 DUP2 PUSH2 0xAFE JUMP JUMPDEST DUP3 MSTORE POP POP JUMP JUMPDEST PUSH1 0x0 PUSH1 0x20 DUP3 ADD SWAP1 POP PUSH2 0xB2E PUSH1 0x0 DUP4 ADD DUP5 PUSH2 0xB0A JUMP JUMPDEST SWAP3 SWAP2 POP POP JUMP JUMPDEST PUSH1 0x0 DUP2 SWAP1 POP SWAP2 SWAP1 POP JUMP JUMPDEST PUSH2 0xB47 DUP2 PUSH2 0xB34 JUMP JUMPDEST DUP2 EQ PUSH2 0xB52 JUMPI PUSH1 0x0 DUP1 REVERT JUMPDEST POP JUMP JUMPDEST PUSH1 0x0 DUP2 CALLDATALOAD SWAP1 POP PUSH2 0xB64 DUP2 PUSH2 0xB3E JUMP JUMPDEST SWAP3 SWAP2 POP POP JUMP JUMPDEST PUSH1 0x0 DUP1 PUSH1 0x40 DUP4 DUP6 SUB SLT ISZERO PUSH2 0xB81 JUMPI PUSH2 0xB80 PUSH2 0xA69 JUMP JUMPDEST JUMPDEST PUSH1 0x0 PUSH2 0xB8F DUP6 DUP3 DUP7 ADD PUSH2 0xABC JUMP JUMPDEST SWAP3 POP POP PUSH1 0x20 PUSH2 0xBA0 DUP6 DUP3 DUP7 ADD PUSH2 0xB55 JUMP JUMPDEST SWAP2 POP POP SWAP3 POP SWAP3 SWAP1 POP JUMP JUMPDEST PUSH2 0xBB3 DUP2 PUSH2 0xB34 JUMP JUMPDEST DUP3 MSTORE POP POP JUMP JUMPDEST PUSH1 0x0 PUSH1 0x20 DUP3 ADD SWAP1 POP PUSH2 0xBCE PUSH1 0x0 DUP4 ADD DUP5 PUSH2 0xBAA JUMP JUMPDEST SWAP3 SWAP2 POP POP JUMP JUMPDEST PUSH1 0x0 PUSH2 0xBDF DUP3 PUSH2 0xA73 JUMP JUMPDEST SWAP1 POP SWAP2 SWAP1 POP JUMP JUMPDEST PUSH2 0xBEF DUP2 PUSH2 0xBD4 JUMP JUMPDEST DUP3 MSTORE POP POP JUMP JUMPDEST PUSH1 0x0 PUSH1 0x20 DUP3 ADD SWAP1 POP PUSH2 0xC0A PUSH1 0x0 DUP4 ADD DUP5 PUSH2 0xBE6 JUMP JUMPDEST SWAP3 SWAP2 POP POP JUMP JUMPDEST PUSH2 0xC19 DUP2 PUSH2 0xAFE JUMP JUMPDEST DUP2 EQ PUSH2 0xC24 JUMPI PUSH1 0x0 DUP1 REVERT JUMPDEST POP JUMP JUMPDEST PUSH1 0x0 DUP2 CALLDATALOAD SWAP1 POP PUSH2 0xC36 DUP2 PUSH2 0xC10 JUMP JUMPDEST SWAP3 SWAP2 POP POP JUMP JUMPDEST PUSH1 0x0 DUP1 PUSH1 0x40 DUP4 DUP6 SUB SLT ISZERO PUSH2 0xC53 JUMPI PUSH2 0xC52 PUSH2 0xA69 JUMP JUMPDEST JUMPDEST PUSH1 0x0 PUSH2 0xC61 DUP6 DUP3 DUP7 ADD PUSH2 0xABC JUMP JUMPDEST SWAP3 POP POP PUSH1 0x20 PUSH2 0xC72 DUP6 DUP3 DUP7 ADD PUSH2 0xC27 JUMP JUMPDEST SWAP2 POP POP SWAP3 POP SWAP3 SWAP1 POP JUMP JUMPDEST PUSH2 0xC85 DUP2 PUSH2 0xBD4 JUMP JUMPDEST DUP2 EQ PUSH2 0xC90 JUMPI PUSH1 0x0 DUP1 REVERT JUMPDEST POP JUMP JUMPDEST PUSH1 0x0 DUP2 CALLDATALOAD SWAP1 POP PUSH2 0xCA2 DUP2 PUSH2 0xC7C JUMP JUMPDEST SWAP3 SWAP2 POP POP JUMP JUMPDEST PUSH1 0x0 PUSH1 0x20 DUP3 DUP5 SUB SLT ISZERO PUSH2 0xCBE JUMPI PUSH2 0xCBD PUSH2 0xA69 JUMP JUMPDEST JUMPDEST PUSH1 0x0 PUSH2 0xCCC DUP5 DUP3 DUP6 ADD PUSH2 0xC93 JUMP JUMPDEST SWAP2 POP POP SWAP3 SWAP2 POP POP JUMP JUMPDEST PUSH1 0x0 DUP1 REVERT JUMPDEST PUSH1 0x0 DUP1 REVERT JUMPDEST PUSH1 0x0 PUSH1 0x1F NOT PUSH1 0x1F DUP4 ADD AND SWAP1 POP SWAP2 SWAP1 POP JUMP JUMPDEST PUSH32 0x4E487B7100000000000000000000000000000000000000000000000000000000 PUSH1 0x0 MSTORE PUSH1 0x41 PUSH1 0x4 MSTORE PUSH1 0x24 PUSH1 0x0 REVERT JUMPDEST PUSH2 0xD28 DUP3 PUSH2 0xCDF JUMP JUMPDEST DUP2 ADD DUP2 DUP2 LT PUSH8 0xFFFFFFFFFFFFFFFF DUP3 GT OR ISZERO PUSH2 0xD47 JUMPI PUSH2 0xD46 PUSH2 0xCF0 JUMP JUMPDEST JUMPDEST DUP1 PUSH1 0x40 MSTORE POP POP POP JUMP JUMPDEST PUSH1 0x0 PUSH2 0xD5A PUSH2 0xA5F JUMP JUMPDEST SWAP1 POP PUSH2 0xD66 DUP3 DUP3 PUSH2 0xD1F JUMP JUMPDEST SWAP2 SWAP1 POP JUMP JUMPDEST PUSH1 0x0 PUSH8 0xFFFFFFFFFFFFFFFF DUP3 GT ISZERO PUSH2 0xD86 JUMPI PUSH2 0xD85 PUSH2 0xCF0 JUMP JUMPDEST JUMPDEST PUSH2 0xD8F DUP3 PUSH2 0xCDF JUMP JUMPDEST SWAP1 POP PUSH1 0x20 DUP2 ADD SWAP1 POP SWAP2 SWAP1 POP JUMP JUMPDEST DUP3 DUP2 DUP4 CALLDATACOPY PUSH1 0x0 DUP4 DUP4 ADD MSTORE POP POP POP JUMP JUMPDEST PUSH1 0x0 PUSH2 0xDBE PUSH2 0xDB9 DUP5 PUSH2 0xD6B JUMP JUMPDEST PUSH2 0xD50 JUMP JUMPDEST SWAP1 POP DUP3 DUP2 MSTORE PUSH1 0x20 DUP2 ADD DUP5 DUP5 DUP5 ADD GT ISZERO PUSH2 0xDDA JUMPI PUSH2 0xDD9 PUSH2 0xCDA JUMP JUMPDEST JUMPDEST PUSH2 0xDE5 DUP5 DUP3 DUP6 PUSH2 0xD9C JUMP JUMPDEST POP SWAP4 SWAP3 POP POP POP JUMP JUMPDEST PUSH1 0x0 DUP3 PUSH1 0x1F DUP4 ADD SLT PUSH2 0xE02 JUMPI PUSH2 0xE01 PUSH2 0xCD5 JUMP JUMPDEST JUMPDEST DUP2 CALLDATALOAD PUSH2 0xE12 DUP5 DUP3 PUSH1 0x20 DUP7 ADD PUSH2 0xDAB JUMP JUMPDEST SWAP2 POP POP SWAP3 SWAP2 POP POP JUMP JUMPDEST PUSH1 0x0 DUP1 PUSH1 0x0 PUSH1 0x60 DUP5 DUP7 SUB SLT ISZERO PUSH2 0xE34 JUMPI PUSH2 0xE33 PUSH2 0xA69 JUMP JUMPDEST JUMPDEST PUSH1 0x0 PUSH2 0xE42 DUP7 DUP3 DUP8 ADD PUSH2 0xC93 JUMP JUMPDEST SWAP4 POP POP PUSH1 0x20 PUSH2 0xE53 DUP7 DUP3 DUP8 ADD PUSH2 0xB55 JUMP JUMPDEST SWAP3 POP POP PUSH1 0x40 DUP5 ADD CALLDATALOAD PUSH8 0xFFFFFFFFFFFFFFFF DUP2 GT ISZERO PUSH2 0xE74 JUMPI PUSH2 0xE73 PUSH2 0xA6E JUMP JUMPDEST JUMPDEST PUSH2 0xE80 DUP7 DUP3 DUP8 ADD PUSH2 0xDED JUMP JUMPDEST SWAP2 POP POP SWAP3 POP SWAP3 POP SWAP3 JUMP JUMPDEST PUSH1 0x0 DUP2 MLOAD SWAP1 POP SWAP2 SWAP1 POP JUMP JUMPDEST PUSH1 0x0 DUP3 DUP3 MSTORE PUSH1 0x20 DUP3 ADD SWAP1 POP SWAP3 SWAP2 POP POP JUMP JUMPDEST PUSH1 0x0 JUMPDEST DUP4 DUP2 LT ISZERO PUSH2 0xEC4 JUMPI DUP1 DUP3 ADD MLOAD DUP2 DUP5 ADD MSTORE PUSH1 0x20 DUP2 ADD SWAP1 POP PUSH2 0xEA9 JUMP JUMPDEST PUSH1 0x0 DUP5 DUP5 ADD MSTORE POP POP POP POP JUMP JUMPDEST PUSH1 0x0 PUSH2 0xEDB DUP3 PUSH2 0xE8A JUMP JUMPDEST PUSH2 0xEE5 DUP2 DUP6 PUSH2 0xE95 JUMP JUMPDEST SWAP4 POP PUSH2 0xEF5 DUP2 DUP6 PUSH1 0x20 DUP7 ADD PUSH2 0xEA6 JUMP JUMPDEST PUSH2 0xEFE DUP2 PUSH2 0xCDF JUMP JUMPDEST DUP5 ADD SWAP2 POP POP SWAP3 SWAP2 POP POP JUMP JUMPDEST PUSH1 0x0 PUSH1 0x20 DUP3 ADD SWAP1 POP DUP2 DUP2 SUB PUSH1 0x0 DUP4 ADD MSTORE PUSH2 0xF23 DUP2 DUP5 PUSH2 0xED0 JUMP JUMPDEST SWAP1 POP SWAP3 SWAP2 POP POP JUMP JUMPDEST PUSH1 0x0 DUP3 DUP3 MSTORE PUSH1 0x20 DUP3 ADD SWAP1 POP SWAP3 SWAP2 POP POP JUMP JUMPDEST PUSH32 0x796F7520617265206E6F7420746865206F776E65722061626F7274696E670000 PUSH1 0x0 DUP3 ADD MSTORE POP JUMP JUMPDEST PUSH1 0x0 PUSH2 0xF72 PUSH1 0x1E DUP4 PUSH2 0xF2B JUMP JUMPDEST SWAP2 POP PUSH2 0xF7D DUP3 PUSH2 0xF3C JUMP JUMPDEST PUSH1 0x20 DUP3 ADD SWAP1 POP SWAP2 SWAP1 POP JUMP JUMPDEST PUSH1 0x0 PUSH1 0x20 DUP3 ADD SWAP1 POP DUP2 DUP2 SUB PUSH1 0x0 DUP4 ADD MSTORE PUSH2 0xFA1 DUP2 PUSH2 0xF65 JUMP JUMPDEST SWAP1 POP SWAP2 SWAP1 POP JUMP JUMPDEST PUSH32 0x796F7520617265206E6F7420746865206F776E65722C2061626F7274696E6700 PUSH1 0x0 DUP3 ADD MSTORE POP JUMP JUMPDEST PUSH1 0x0 PUSH2 0xFDE PUSH1 0x1F DUP4 PUSH2 0xF2B JUMP JUMPDEST SWAP2 POP PUSH2 0xFE9 DUP3 PUSH2 0xFA8 JUMP JUMPDEST PUSH1 0x20 DUP3 ADD SWAP1 POP SWAP2 SWAP1 POP JUMP JUMPDEST PUSH1 0x0 PUSH1 0x20 DUP3 ADD SWAP1 POP DUP2 DUP2 SUB PUSH1 0x0 DUP4 ADD MSTORE PUSH2 0x100D DUP2 PUSH2 0xFD1 JUMP JUMPDEST SWAP1 POP SWAP2 SWAP1 POP JUMP JUMPDEST PUSH32 0x596F7520617265206E6F7420746865206761756469616E000000000000000000 PUSH1 0x0 DUP3 ADD MSTORE POP JUMP JUMPDEST PUSH1 0x0 PUSH2 0x104A PUSH1 0x17 DUP4 PUSH2 0xF2B JUMP JUMPDEST SWAP2 POP PUSH2 0x1055 DUP3 PUSH2 0x1014 JUMP JUMPDEST PUSH1 0x20 DUP3 ADD SWAP1 POP SWAP2 SWAP1 POP JUMP JUMPDEST PUSH1 0x0 PUSH1 0x20 DUP3 ADD SWAP1 POP DUP2 DUP2 SUB PUSH1 0x0 DUP4 ADD MSTORE PUSH2 0x1079 DUP2 PUSH2 0x103D JUMP JUMPDEST SWAP1 POP SWAP2 SWAP1 POP JUMP JUMPDEST PUSH32 0x41626F7274696E67000000000000000000000000000000000000000000000000 PUSH1 0x0 DUP3 ADD MSTORE POP JUMP JUMPDEST PUSH1 0x0 PUSH2 0x10B6 PUSH1 0x8 DUP4 PUSH2 0xF2B JUMP JUMPDEST SWAP2 POP PUSH2 0x10C1 DUP3 PUSH2 0x1080 JUMP JUMPDEST PUSH1 0x20 DUP3 ADD SWAP1 POP SWAP2 SWAP1 POP JUMP JUMPDEST PUSH1 0x0 PUSH1 0x20 DUP3 ADD SWAP1 POP DUP2 DUP2 SUB PUSH1 0x0 DUP4 ADD MSTORE PUSH2 0x10E5 DUP2 PUSH2 0x10A9 JUMP JUMPDEST SWAP1 POP SWAP2 SWAP1 POP JUMP JUMPDEST PUSH32 0x4E487B7100000000000000000000000000000000000000000000000000000000 PUSH1 0x0 MSTORE PUSH1 0x11 PUSH1 0x4 MSTORE PUSH1 0x24 PUSH1 0x0 REVERT JUMPDEST PUSH1 0x0 PUSH2 0x1126 DUP3 PUSH2 0xB34 JUMP JUMPDEST SWAP2 POP PUSH32 0xFFFFFFFFFFFFFFFFFFFFFFFFFFFFFFFFFFFFFFFFFFFFFFFFFFFFFFFFFFFFFFFF DUP3 SUB PUSH2 0x1158 JUMPI PUSH2 0x1157 PUSH2 0x10EC JUMP JUMPDEST JUMPDEST PUSH1 0x1 DUP3 ADD SWAP1 POP SWAP2 SWAP1 POP JUMP JUMPDEST PUSH32 0x75736572206973206E6F7420616C6C6F77656420746F2053656E640000000000 PUSH1 0x0 DUP3 ADD MSTORE POP JUMP JUMPDEST PUSH1 0x0 PUSH2 0x1199 PUSH1 0x1B DUP4 PUSH2 0xF2B JUMP JUMPDEST SWAP2 POP PUSH2 0x11A4 DUP3 PUSH2 0x1163 JUMP JUMPDEST PUSH1 0x20 DUP3 ADD SWAP1 POP SWAP2 SWAP1 POP JUMP JUMPDEST PUSH1 0x0 PUSH1 0x20 DUP3 ADD SWAP1 POP DUP2 DUP2 SUB PUSH1 0x0 DUP4 ADD MSTORE PUSH2 0x11C8 DUP2 PUSH2 0x118C JUMP JUMPDEST SWAP1 POP SWAP2 SWAP1 POP JUMP JUMPDEST PUSH32 0x496E73756666696369656E7420616D6F756E7420617661696C61626C652C2061 PUSH1 0x0 DUP3 ADD MSTORE PUSH32 0x62757274696E6700000000000000000000000000000000000000000000000000 PUSH1 0x20 DUP3 ADD MSTORE POP JUMP JUMPDEST PUSH1 0x0 PUSH2 0x122B PUSH1 0x27 DUP4 PUSH2 0xF2B JUMP JUMPDEST SWAP2 POP PUSH2 0x1236 DUP3 PUSH2 0x11CF JUMP JUMPDEST PUSH1 0x40 DUP3 ADD SWAP1 POP SWAP2 SWAP1 POP JUMP JUMPDEST PUSH1 0x0 PUSH1 0x20 DUP3 ADD SWAP1 POP DUP2 DUP2 SUB PUSH1 0x0 DUP4 ADD MSTORE PUSH2 0x125A DUP2 PUSH2 0x121E JUMP JUMPDEST SWAP1 POP SWAP2 SWAP1 POP JUMP JUMPDEST PUSH1 0x0 PUSH2 0x126C DUP3 PUSH2 0xB34 JUMP JUMPDEST SWAP2 POP PUSH2 0x1277 DUP4 PUSH2 0xB34 JUMP JUMPDEST SWAP3 POP DUP3 DUP3 SUB SWAP1 POP DUP2 DUP2 GT ISZERO PUSH2 0x128F JUMPI PUSH2 0x128E PUSH2 0x10EC JUMP JUMPDEST JUMPDEST SWAP3 SWAP2 POP POP JUMP JUMPDEST PUSH1 0x0 DUP2 SWAP1 POP SWAP3 SWAP2 POP POP JUMP JUMPDEST PUSH1 0x0 PUSH2 0x12AB DUP3 PUSH2 0xE8A JUMP JUMPDEST PUSH2 0x12B5 DUP2 DUP6 PUSH2 0x1295 JUMP JUMPDEST SWAP4 POP PUSH2 0x12C5 DUP2 DUP6 PUSH1 0x20 DUP7 ADD PUSH2 0xEA6 JUMP JUMPDEST DUP1 DUP5 ADD SWAP2 POP POP SWAP3 SWAP2 POP POP JUMP JUMPDEST PUSH1 0x0 PUSH2 0x12DD DUP3 DUP5 PUSH2 0x12A0 JUMP JUMPDEST SWAP2 POP DUP2 SWAP1 POP SWAP3 SWAP2 POP POP JUMP INVALID LOG2 PUSH5 0x6970667358 0x22 SLT KECCAK256 0xDF SWAP13 0xBB SELFDESTRUCT PUSH3 0xF745F7 LOG2 0xC5 SWAP8 STOP CALLDATACOPY JUMPI ADDRESS 0x2E PUSH26 0x6EEDACCB6B38572117009CA576704D64736F6C63430008120033 "
				},
				"gasEstimates": {
					"creation": {
						"codeDepositCost": "978800",
						"executionCost": "25280",
						"totalCost": "1004080"
					},
					"external": {
						"allowances(address)": "2859",
						"confirmationsFromGaurdianForReset()": "395",
						"gaurdian(address)": "2933",
						"isAllowedToSend(address)": "2846",
						"owner()": "2578",
						"proposeNewOwner(address)": "63001",
						"setAllowances(address,uint256)": "49416",
						"setGaurdian(address,bool)": "27158",
						"transfer(address,uint256,bytes)": "infinite"
					}
				},
				"methodIdentifiers": {
					"allowances(address)": "2b603c71",
					"confirmationsFromGaurdianForReset()": "d004c57d",
					"gaurdian(address)": "dead82af",
					"isAllowedToSend(address)": "0bc605ad",
					"owner()": "8da5cb5b",
					"proposeNewOwner(address)": "b1f8100d",
					"setAllowances(address,uint256)": "139c7b5d",
					"setGaurdian(address,bool)": "a364c09f",
					"transfer(address,uint256,bytes)": "be45fd62"
				}
			},
			"storageLayout": {
				"storage": [
					{
						"astId": 20,
						"contract": "contracts/TheSmartWallet.sol:SmartWalletContract",
						"label": "owner",
						"offset": 0,
						"slot": "0",
						"type": "t_address_payable"
					},
					{
						"astId": 22,
						"contract": "contracts/TheSmartWallet.sol:SmartWalletContract",
						"label": "nextOwner",
						"offset": 0,
						"slot": "1",
						"type": "t_address_payable"
					},
					{
						"astId": 26,
						"contract": "contracts/TheSmartWallet.sol:SmartWalletContract",
						"label": "allowances",
						"offset": 0,
						"slot": "2",
						"type": "t_mapping(t_address,t_uint256)"
					},
					{
						"astId": 32,
						"contract": "contracts/TheSmartWallet.sol:SmartWalletContract",
						"label": "nextOwnerGaudianVotedBool",
						"offset": 0,
						"slot": "3",
						"type": "t_mapping(t_address,t_mapping(t_address,t_bool))"
					},
					{
						"astId": 36,
						"contract": "contracts/TheSmartWallet.sol:SmartWalletContract",
						"label": "gaurdian",
						"offset": 0,
						"slot": "4",
						"type": "t_mapping(t_address,t_bool)"
					},
					{
						"astId": 40,
						"contract": "contracts/TheSmartWallet.sol:SmartWalletContract",
						"label": "isAllowedToSend",
						"offset": 0,
						"slot": "5",
						"type": "t_mapping(t_address,t_bool)"
					},
					{
						"astId": 42,
						"contract": "contracts/TheSmartWallet.sol:SmartWalletContract",
						"label": "gaurdianResetCount",
						"offset": 0,
						"slot": "6",
						"type": "t_uint256"
					}
				],
				"types": {
					"t_address": {
						"encoding": "inplace",
						"label": "address",
						"numberOfBytes": "20"
					},
					"t_address_payable": {
						"encoding": "inplace",
						"label": "address payable",
						"numberOfBytes": "20"
					},
					"t_bool": {
						"encoding": "inplace",
						"label": "bool",
						"numberOfBytes": "1"
					},
					"t_mapping(t_address,t_bool)": {
						"encoding": "mapping",
						"key": "t_address",
						"label": "mapping(address => bool)",
						"numberOfBytes": "32",
						"value": "t_bool"
					},
					"t_mapping(t_address,t_mapping(t_address,t_bool))": {
						"encoding": "mapping",
						"key": "t_address",
						"label": "mapping(address => mapping(address => bool))",
						"numberOfBytes": "32",
						"value": "t_mapping(t_address,t_bool)"
					},
					"t_mapping(t_address,t_uint256)": {
						"encoding": "mapping",
						"key": "t_address",
						"label": "mapping(address => uint256)",
						"numberOfBytes": "32",
						"value": "t_uint256"
					},
					"t_uint256": {
						"encoding": "inplace",
						"label": "uint256",
						"numberOfBytes": "32"
					}
				}
			},
			"userdoc": {
				"kind": "user",
				"methods": {},
				"version": 1
			}
		}
	}
}